:100000000C9463000C948B000C948B000C94B4063D
:100010000C94B4060C94B4060C948B000C948B00D6
:100020000C948B000C948B000C948B000C94500659
:100030000C948B000C948B000C948B000C948B0014
:100040000C9474040C948B000C9480030C945A034D
:100050000C948B000C948B000C948B000C948B00F4
:100060000C94C5040C948B000000000024002700B1
:100070002A0000000008000201000003040700003D
:1000800000000000000000000000250028002B00F8
:1000900000000000230026002900040404040404D6
:1000A0000404020202020202030303030303010227
:1000B00004081020408001020408102001020408F6
:1000C00010201B09110911241FBECFEFD8E0DEBF9D
:1000D000CDBF11E0A0E0B1E0ECECF3E202C005908E
:1000E0000D92A835B107D9F724E0A8E5B1E001C029
:1000F0001D92A231B207E1F710E0C2E6D0E004C0E1
:100100002197FE010E94CA0CC136D107C9F70E948F
:10011000EE090C94D9110C940000CF92DF92EF926B
:10012000FF920F931F93CF93DF936C017A018B01A2
:10013000C0E0D0E0CE15DF0589F0D8016D918D01CA
:10014000D601ED91FC910190F081E02DC601099559
:10015000892B11F47E0102C02196ECCFC701DF91FB
:10016000CF911F910F91FF90EF90DF90CF90089566
:10017000FC01918D828D981761F0828DDF01A80FAF
:10018000B11D5D968C91928D9F5F9F73928F90E0D1
:1001900008958FEF9FEF0895FC01918D828D981740
:1001A00031F0828DE80FF11D858D90E008958FEF7D
:1001B0009FEF0895FC01918D228D892F90E0805C46
:1001C0009F4F821B91098F73992708958EE792E0C4
:1001D0000E94DA0021E0892B09F420E0822F0895A3
:1001E000FC01848DDF01A80FB11DA35ABF4F2C91D4
:1001F000848D90E001968F739927848FA689B789A3
:100200002C93A089B1898C9180648C93938D848D7B
:10021000981306C00288F389E02D80818F7D80834A
:100220000895EF92FF920F931F93CF93DF93EC010A
:1002300081E0888F9B8D8C8D981305C0E889F989A2
:10024000808185FD24C0F62E0B8D10E00F5F1F4FBF
:100250000F731127E02E8C8DE8120CC00FB607FC2F
:10026000FACFE889F989808185FFF5CFCE010E9418
:10027000F000F1CF8B8DFE01E80FF11DE35AFF4F27
:10028000F0820B8FEA89FB898081806207C0EE894A
:10029000FF896083E889F98980818064808381E0B7
:1002A00090E0DF91CF911F910F91FF90EF90089513
:1002B000CF93DF93EC01888D8823C9F0EA89FB890D
:1002C000808185FD05C0A889B9898C9186FD0FC004
:1002D0000FB607FCF5CF808185FFF2CFA889B989D9
:1002E0008C9185FFEDCFCE010E94F000E7CFDF912A
:1002F000CF91089580E090E0892B29F00E94E600DC
:1003000081110C94000008953FB7F8948091250264
:1003100090912602A0912702B091280226B5A89BB1
:1003200005C02F3F19F00196A11DB11D3FBFBA2F87
:10033000A92F982F8827820F911DA11DB11DBC01E7
:10034000CD0142E0660F771F881F991F4A95D1F7AC
:10035000089585ED8093BC008091BC0084FDFCCFA6
:100360001092530208954091FF01262F30E0240F90
:10037000311D21323105DCF4209153022430C9F4BF
:10038000FC0180E090E0861758F43091FF01219144
:10039000DC01A352BE4FA30FB11D2C930196F3CFE6
:1003A0008091FF01680F6093FF0180E0089581E074
:1003B000089582E008950895E091550280915402D5
:1003C000E81730F4F0E0EA5AFD4F808190E008959C
:1003D0008FEF9FEF089590915502809154029817E6
:1003E00050F4E92FF0E0EA5AFD4F208130E09F5FA2
:1003F0009093550202C02FEF3FEFC90108958091FD
:10040000540290E020915502821B91090895CF92E9
:10041000DF92EF92FF920F931F93CF93DF937C01B4
:10042000262F972F8A0180917D02882391F0C62F75
:10043000D72F6E01C40ED51ECC15DD0571F0699164
:10044000D701ED91FC910190F081E02DC701099554
:10045000F3CF642F822F0E94B301C801DF91CF91A7
:100460001F910F91FF90EF90DF90CF900895CF9361
:10047000DF931F92CDB7DEB7698320917D022223DF
:10048000D1F020917A02203240F021E030E0FC01EE
:100490003383228380E090E015C080917B02E82FB7
:1004A000F0E0E354FE4F998190838F5F80937B024D
:1004B00080937A0205C061E0CE0101960E94B301EB
:1004C00081E090E00F90DF91CF91089520912B0271
:1004D00030912C022817390771F4909129028091EC
:1004E0002A02981741F0E0912902F0E0E85AFE4F05
:1004F000808190E008958FEF9FEF089508951F93F6
:10050000CF93DF93DC015C962D913C915D97211593
:10051000310539F481E090E013969C938E93129705
:100520003DC05196ED91FC91529750969C915097F9
:10053000892F80951FB75E964C915E9741FB772778
:1005400070F941FD6095F8944081772311F0492BB3
:1005500001C048234083E9012197F1F748E0508129
:1005600060FF02C0592B01C058235083E901219735
:10057000F1F76695415099F7772321F0908189230F
:10058000808303C08081982B90831FBF5C968D91E0
:100590009C915D970197F1F721E030E0C901DF916F
:1005A000CF911F91089520912B0230912C02281792
:1005B000390771F480912A022091290290E0805C31
:1005C0009F4F821B910960E470E00E949B0C08958C
:1005D00080E090E0089520912B0230912C022817A2
:1005E0003907B9F49091290280912A02981789F06D
:1005F000E0912902F0E0E85AFE4F80812091290223
:1006000030E02F5F3F4F2F7333272093290290E074
:1006100008958FEF9FEF08950E942D10EF92FF92A3
:100620000F931F93CF93DF93EC01198218821B82E3
:100630001A821D821C8261157105A9F17B01FB01E3
:1006400001900020E9F731978F01061B170BB801C5
:100650006F5F7F4F80E090E00E94630F009759F03A
:10066000998388831B830A832C813D81232B81F40A
:10067000FC0110820DC088819981009711F00E94C1
:10068000CB0E198218821D821C821B821A820BC01B
:100690001D830C83B701DF91CF911F910F91FF90C4
:1006A000EF900C943B10DF91CF911F910F91FF9031
:1006B000EF9008951F920F920FB60F9211242F936F
:1006C0003F934F935F936F937F938F939F93AF93DA
:1006D000BF93EF93FF938EE792E00E94F000FF91AB
:1006E000EF91BF91AF919F918F917F916F915F91AA
:1006F0004F913F912F910F900FBE0F901F90189523
:100700001F920F920FB60F9211242F938F939F93E6
:10071000EF93FF93E0918E02F0918F028081E09140
:100720009402F091950282FD12C09081809197020F
:100730008F5F8F7320919802821751F0E09197029A
:10074000F0E0E258FD4F958F8093970201C08081C1
:10075000FF91EF919F918F912F910F900FBE0F906E
:100760001F90189590E0FC01EE58FF4F3491FC016A
:10077000E255FF4F2491FC01E656FF4FE491EE2332
:1007800009F43BC0332339F1333091F038F4313080
:10079000A9F0323001F584B58F7D12C0373091F069
:1007A0003830A1F03430B9F4809180008F7D03C0DF
:1007B000809180008F77809380000DC084B58F7703
:1007C00084BD09C08091B0008F7703C08091B000D4
:1007D0008F7D8093B000F0E0EE0FFF1FEA57FF4FD0
:1007E000A591B4918FB7F894EC91611103C0209555
:1007F0002E2301C02E2B2C938FBF0895CF93DF9310
:1008000090E0FC01E255FF4F2491FC01E656FF4FBA
:100810008491882361F190E0880F991FFC01E859C9
:10082000FF4FC591D491FC01EA57FF4FA591B491B8
:10083000611109C09FB7F89488812095822388832D
:10084000EC912E230BC0623061F49FB7F89438818D
:10085000822F809583238883EC912E2B2C939FBF2E
:1008600006C08FB7F894E8812E2B28838FBFDF91C5
:10087000CF9108958F929F92AF92BF92CF92DF92C5
:10088000EF92FF926B017C010E9484014B015C019D
:10089000C114D104E104F104F1F00E948401DC01EF
:1008A000CB0188199909AA09BB09883E9340A10583
:1008B000B10570F321E0C21AD108E108F10888EE11
:1008C000880E83E0981EA11CB11CC114D104E10460
:1008D000F10419F7DDCFFF90EF90DF90CF90BF903C
:1008E000AF909F908F9008951F920F920FB60F9226
:1008F00011242F933F938F939F93AF93BF93809136
:10090000760290917702A0917802B09179023091AD
:10091000240223E0230F2D3720F40196A11DB11DE1
:1009200005C026E8230F0296A11DB11D20932402C5
:100930008093760290937702A0937802B093790225
:100940008091250290912602A0912702B091280261
:100950000196A11DB11D8093250290932602A093BC
:100960002702B0932802BF91AF919F918F913F9141
:100970002F910F900FBE0F901F901895DC01ED91F5
:10098000FC910190F081E02D09941F920F920FB617
:100990000F9211242F933F934F935F936F937F9305
:1009A0008F939F93AF93BF93EF93FF938091B90081
:1009B000887F803609F49CC068F5883209F45BC0F2
:1009C00090F4803109F454C038F4882309F4F6C057
:1009D000883009F44DC0F6C0883109F44CC080322B
:1009E00009F45DC0EFC0803409F468C048F4803376
:1009F00009F455C0883309F0E5C080935102D8C08E
:100A0000803509F44FC0883509F45DC0883409F099
:100A1000D9C0D6C0883909F4C7C0A8F4883709F40A
:100A200067C038F4883609F463C0803709F460C0C1
:100A3000C9C0883809F4B8C0803909F45FC080386B
:100A400009F0C0C05BC0803B09F486C038F4803A2E
:100A500009F466C0883A09F47FC0B4C0803C09F448
:100A6000A7C0883C09F4A4C0883B09F48AC0AAC086
:100A700080914E0210C09091500280914F029817C1
:100A800070F5E091500281E08E0F80935002F0E00B
:100A9000E35DFD4F80818093BB0085EC86C0809331
:100AA00051028EC0E091500281E08E0F809350027F
:100AB0008091BB00F0E0E35DFD4F80839091500298
:100AC00080914F026EC0E091500281E08E0F8093C2
:100AD00050028091BB00F0E0E35DFD4F8083809188
:100AE000520281116DC081E080934D0284EA61C0A1
:100AF00083E08093530210922302CFCF8091230290
:100B0000803208F051C0E091230281E08E0F809383
:100B100023028091BB00F0E0ED5FFD4F8083BDCFED
:100B200085EC8093BC0010925302809123028032A6
:100B300030F4E0912302F0E0ED5FFD4F1082609110
:100B4000230270E0E0910102F091020283E092E062
:100B500009951092230236C084E0809353021092CC
:100B600000021092FF01E091FD01F091FE01099554
:100B70008091FF01811105C081E08093FF011092F7
:100B8000DD01E091000281E08E0F80930002F0E031
:100B9000E352FE4F80818093BB00909100028091D0
:100BA000FF01981708F479CF85E88093BC000AC04C
:100BB00085EC8093BC001092530204C01092510245
:100BC0000E94A901FF91EF91BF91AF919F918F91E9
:100BD0007F916F915F914F913F912F910F900FBE39
:100BE0000F901F90189520917A0290917C022132EB
:100BF00008F04AC0809153028111FCCF32E030935B
:100C0000530231E0309352023FEF30935102109281
:100C1000500220934F02ADEBB1E04DE252E0FA01F9
:100C20003E2F341B321718F43D913193F9CF1092B7
:100C30004E0220914E02990F922B90934E0290916A
:100C40004D02913061F410924D0290914E029093BA
:100C5000BB009091BC0093FDF8CF95EC01C095EEE0
:100C60009093BC00909153029230E1F39091510225
:100C70009F3F79F080915102803241F08091510282
:100C8000803331F084E005C081E003C082E001C020
:100C900083E010927B0210927A0210927D020895F6
:100CA0001F920F920FB60F9211242F933F938F93A1
:100CB0009F93EF93FF938091BC0187FF05C0109233
:100CC00085001092840005C08091BC0187FD809151
:100CD000BC018091BC018F5F8093BC018091BC01FD
:100CE00087FF20C08091BC018C30E4F42091840007
:100CF000309185008091BC01082E000C990BFC01FD
:100D0000EE0FFF1F8E0F9F1FFC01E856FE4F8181E3
:100D10009281820F931F9093890080938800809125
:100D2000BC0117C0809184009091850004968034A6
:100D30009C4918F480E49CE905C08091840090915E
:100D40008500049690938900809388008FEF8093AC
:100D5000BC01FF91EF919F918F913F912F910F9047
:100D60000FBE0F901F9018951F920F920FB60F9203
:100D700011242F933F934F935F936F937F938F93A0
:100D80009F93AF93BF93EF93FF93E0912B02F0916A
:100D90002C02309709F451C0968DA685B7858585BC
:100DA00091FF04C09C91892329F447C09C91892319
:100DB00009F043C0A389B4899C91858980958923D2
:100DC0008C93868997890197F1F7608D718DA6853F
:100DD000B785558538E020E0CB010197F1F7822FE8
:100DE00090E095958795282F4C91452309F0206830
:100DF000315091F7868D81FD209580912A0290E0F7
:100E000001968F73992730912902381749F0A091E4
:100E10002A02B0E0A85ABE4F2C9380932A0203C046
:100E2000868D8160868F828D938D0197F1F7A389DE
:100E3000B4899C918589892B8C93FF91EF91BF9107
:100E4000AF919F918F917F916F915F914F913F9162
:100E50002F910F900FBE0F901F901895E0912B02CD
:100E6000F0912C02E817F90769F4A389B4899C91E1
:100E70008589809589238C9310922C0210922B02E5
:100E800081E0089580E00895EF92FF920F931F9301
:100E9000CF93DF937B018C01C0E0D0E0CE15DF055E
:100EA00009F449C02FB7F8948091760290917702A7
:100EB000A0917802B09179022FBF8093860290931F
:100EC0008702A0938802B0938902E0917E02F0919C
:100ED0007F020680F781E02D8EE792E0099597FF6B
:100EE00025C08FB7F89440917602509177026091B7
:100EF0007802709179028FBF80918602909187026B
:100F0000A0918802B0918902481B590B6A0B7B0B98
:100F10008091820290918302A0918402B091850217
:100F2000481759076A077B0780F205C0F8018193CB
:100F30008F012196B3CFCE01DF91CF911F910F91F9
:100F4000FF90EF9008950F931F93CF93DF938B0142
:100F5000CAE4D3E0988121E020937D0290937C0243
:100F600010927B0210927A02A981BA81ED91FC91D4
:100F7000119724E0829FC0011124BC016A5F7F4F5A
:100F80000190F081E02DCD01099560E070E089814C
:100F90009A810E94BE0460E070E089819A810E947B
:100FA000BE04B80189819A810E94BE04612F70E05D
:100FB00089819A810E94BE0489819A81DF91CF91B3
:100FC0001F910F910C94F3051F93CF93DF93162F6E
:100FD000CAE4D3E0988121E020937D0290937C02C3
:100FE00010927B0210927A02A981BA81ED91FC9154
:100FF00011970190F081E02D682FCD01099589812D
:101000009A81DC01ED91FC910190F081E02D612F3E
:10101000099589819A81DF91CF911F910C94F305F5
:10102000009769F0FC0101900020E9F73197AF01CA
:10103000481B590BBC018BE293E00C948D0080E0BF
:1010400090E008958F929F92AF92BF920F931F935B
:10105000CF93DF93CDB7DEB7A1970FB6F894DEBF7D
:101060000FBECDBF19A2423008F44AE08E010F5DD9
:101070001F4F842E912CA12CB12CA50194010E940C
:10108000A811E62FB901CA0101501109EA3014F480
:10109000E05D01C0E95CD801EC93232B242B252BC8
:1010A00061F7C8010E941008A1960FB6F894DEBF40
:1010B0000FBECDBFDF91CF911F910F91BF90AF9029
:1010C0009F908F900895CF93DF9326E636E646E60D
:1010D0005FE30E9494109B01AC0160E27CEB8EEB1D
:1010E00095E40E943D0D20E030E040E85FE30E947F
:1010F000D00C20E030E040E05FE30E94D10C0E9481
:10110000DE0D0E94AF0DD62F80914A0391E090939F
:101110007D0280937C0210927B0210927A02809171
:101120004B0390914C03DC01ED91FC910190F08117
:10113000E02D60E0099580914B0390914C030E9453
:10114000F30580914A03909153029111FCCF91E0F5
:1011500090935302909352022FEF209351021092DA
:10116000500210924F0290934E0290914E02880FBF
:10117000892B80934E0280914D02813061F4109250
:101180004D0280914E028093BB008091BC0083FD94
:10119000F8CF85EC01C085EE8093BC0080915302AE
:1011A0008130E1F380915002811103C0809150029F
:1011B00001C081E0ADE2B2E026E532E0F9019E2F08
:1011C000921B981718F49D919193F9CF10925502A4
:1011D0008093540280914B0390914C03DC01ED917C
:1011E000FC910680F781E02D0995C82F8F76682F36
:1011F000606180E00E94E4076D2F8EEF0E94E4079B
:101200006C2F80E00E94E40765E070E080E090E0F1
:101210000E943A046C2F606A80E0DF91CF910C94B9
:10122000E40782E391E090932C0380932B038BE2FD
:1012300093E00C942E07109281021092800288EEA7
:1012400093E0A0E0B0E08093820290938302A093A9
:101250008402B093850222E131E030937F02209333
:101260007E0225EC30E030938B0220938A0224EC3E
:1012700030E030938D0220938C0220EC30E03093EC
:101280008F0220938E0221EC30E030939102209364
:10129000900222EC30E0309393022093920226ECED
:1012A00030E03093950220939402109297021092AE
:1012B00098021092990210929A0210921E031092B4
:1012C0001D0380931F0390932003A0932103B093E9
:1012D000220322E231E030931C0320931B0321E41C
:1012E00020934A032BE133E030934C0320934B03CC
:1012F00010922E0310922D0380932F0390933003AE
:10130000A0933103B093320382E391E090932C03D6
:1013100080932B03109242031092410310924403D6
:101320001092430310924603109245031092480313
:1013300010924703609149036E7F6D7F609349036C
:101340006695617081E0682783E00E94B20361E0E6
:1013500083E00E94FE03E1EBF0E0E491E0933B03C5
:10136000EDE9F0E0E491F0E0EE0FFF1FEA57FF4FE8
:101370008591949190933D0380933C0360E085E0D8
:101380000E94FE038091490381FD04C061E085E075
:101390000E94B20385E080933703E3EBF0E0E49131
:1013A000E0933803EFE9F0E0E491F0E0EE0FFF1F87
:1013B000E057FF4F8591949190933A0380933903BE
:1013C0008091290390912A03880F991F880F991FF4
:1013D000019790932803809327030895CF93DF9379
:1013E00000D000D000D0CDB7DEB7789484B582604D
:1013F00084BD84B5816084BD85B5826085BD85B5B9
:10140000816085BD80916E00816080936E00109236
:1014100081008091810082608093810080918100B1
:101420008160809381008091800081608093800042
:101430008091B10084608093B1008091B0008160A0
:101440008093B00080917A00846080937A008091CC
:101450007A00826080937A0080917A008160809324
:101460007A0080917A00806880937A001092C1009F
:10147000E0918E02F0918F0282E08083E0918A02F7
:10148000F0918B0291E09083E0918C02F0918D02BB
:1014900080EA808310929602E0919202F09193028A
:1014A00086E08083E0919002F091910280818061DA
:1014B0008083E0919002F091910280818860808326
:1014C000E0919002F0919102808180688083E091A8
:1014D0009002F091910280818F7D8083109255025D
:1014E0001092540210927B0210927A0210925302D0
:1014F0009093520210924D0261E082E10E94B20389
:1015000061E083E10E94B2038091B9008E7F8093F5
:10151000B9008091B9008D7F8093B90088E48093F1
:10152000B80085E48093BC0060E880E00E94E40796
:101530006AE070E080E090E00E943A0460E070E0D1
:101540008AE794E40E94630860E070E080E792E438
:101550000E9463086AE070E080E090E00E943A0434
:101560006AE070E080E090E00E943A041092460346
:1015700010924503109244031092430310924203C9
:10158000109241038DE991E09093480380934703C3
:1015900090913703963108F057C02DEB30E030932F
:1015A0004203209341032BE931E03093440320931D
:1015B00043032CE231E0309346032093450320910E
:1015C0006800983050F031E09E3008F430E081E05F
:1015D00001C0880F3A95EAF701C084E0822B80931E
:1015E0006800983038F09E3040F0963148F020E0A6
:1015F00030E008C02DE630E005C02BE630E002C048
:101600002CE630E030933F0320933E03983030F4D3
:1016100081E001C0880F9A95EAF70EC0292F30E0CB
:101620009E3018F42850310902C02E50310981E053
:1016300001C0880F2A95EAF7809340038091470301
:10164000909148030197F1F78091450390914603EB
:10165000892B21F180912B0290912C0223E08B3277
:101660009207E1F0009711F00E942E078091490344
:101670008E7F8093490310922A02109229028BE2F6
:1016800093E090932C0280932B02E0913E03F09123
:101690003F03908180914003892B80838EE391E00A
:1016A0000E94100886E491E00E94100810924E03F8
:1016B00061E08DE00E94FE038EE792E00E94DA0076
:1016C000892BD1F38EE792E00E94DA0018161906F2
:1016D000B4F461E070E08DE493E00E9444076DE4AF
:1016E00073E0CE0101960E940E038DE493E0909387
:1016F0002A038093290389819A810E94CB0E00E0FE
:1017000010E08091290390912A030817190744F4E7
:1017100065E671E0802F0E94A3070F5F1F4FF1CF96
:1017200044EBC42ED12CE12CF12C00912703109115
:1017300028038EE792E00E94DA00801791070CF4EC
:10174000E5C0B8018DEC93E00E9444076DEC73E0B6
:10175000CE0101960E940E031092CC0369E471E061
:101760008DEC93E00E946010009799F02091CC03DB
:10177000E22FF0E0EE0FFF1FE25BFC4F91838083CE
:1017800091E0920F9093CC0369E471E080E090E0E7
:10179000E9CF00E010E08091290390912A0301979E
:1017A00008171907DCF480914E0390914F030E94B3
:1017B00042102FE931E0DC010E94AF0CA701960135
:1017C0000E945211CA01B9016A567F4F8F4F9F4F35
:1017D000802F0E94A3070F5F1F4FDDCF60E08DE0D9
:1017E0000E94B2038BE491E00E9410084AE060E09E
:1017F00070E0CB010E942208E0912B03F0912C03B2
:101800000190F081E02D6EE28BE293E009954AE0D1
:1018100060E070E0CB010E9422084AE060E070E0E6
:10182000CB010E94220885E591E00E94100886E421
:1018300091E00E941008A0902903B0902A03F501BE
:10184000EE0FFF1FE45BFC4F808191810E944210EC
:101850008C01009709F44CC08A35910509F04EC0FF
:1018600080910201909103018A35910571F186EF13
:10187000A82EBB24BA94412C512C3201C301B201D1
:10188000A70196010E945211CA01B9016A567F4F01
:101890008F4F9F4F209129038FEF820F0E94A30744
:1018A000B0920101A09200018BE1480E88E0581E21
:1018B000611C711C25E0A20EB11C86EE481681E960
:1018C000580661047104D1F619C0A0910001B091CD
:1018D00001012FE931E00E94AF0CA70196010E949F
:1018E0005211CA01B9016A567F4F8F4F9F4F02C0F4
:1018F00066E970E08FEF8A0D0E94A3071093030141
:101900000093020189819A810E94CB0E8091270366
:1019100090912803AEE4B3E0EDECF3E09F012D5C81
:1019200033402817390724F411921D921D92F6CFE7
:101930000E947A01FACE97FB072E16F4009407D086
:1019400077FD09D00E94B60C07FC05D03EF49095B7
:1019500081959F4F0895709561957F4F08950E94DE
:10196000CA11B7FF0895821B930B0895AA1BBB1BD6
:1019700051E107C0AA1FBB1FA617B70710F0A61B8F
:10198000B70B881F991F5A95A9F780959095BC01B0
:10199000CD010895EE0FFF1F0590F491E02D0994FD
:1019A0005058BB27AA270E94E80C0C9418110E94DB
:1019B0000A1138F00E94111120F039F49F3F19F4F8
:1019C00026F40C9407110EF4E095E7FB0C9401113A
:1019D000E92F0E94291158F3BA1762077307840789
:1019E000950720F079F4A6F50C944B110EF4E095D0
:1019F0000B2EBA2FA02D0B01B90190010C01CA01C9
:101A0000A0011124FF27591B99F0593F50F4503E73
:101A100068F11A16F040A22F232F342F4427585F65
:101A2000F3CF469537952795A795F0405395C9F77D
:101A30007EF41F16BA0B620B730B840BBAF0915035
:101A4000A1F0FF0FBB1F661F771F881FC2F70EC0D4
:101A5000BA0F621F731F841F48F4879577956795A7
:101A6000B795F7959E3F08F0B0CF9395880F08F093
:101A70009927EE0F9795879508950E94510D0C9424
:101A800018110E94111158F00E940A1140F029F417
:101A90005F3F29F00C94011151110C944C110C94DE
:101AA00007110E94291168F39923B1F3552391F38B
:101AB000951B550BBB27AA2762177307840738F0BD
:101AC0009F5F5F4F220F331F441FAA1FA9F335D01A
:101AD0000E2E3AF0E0E832D091505040E695001CCE
:101AE000CAF72BD0FE2F29D0660F771F881FBB1F88
:101AF000261737074807AB07B0E809F0BB0B802D66
:101B0000BF01FF2793585F4F3AF09E3F510578F091
:101B10000C9401110C944C115F3FE4F3983ED4F304
:101B2000869577956795B795F7959F5FC9F7880F65
:101B3000911D9695879597F90895E1E0660F771FB7
:101B4000881FBB1F621773078407BA0720F0621B48
:101B5000730B840BBA0BEE1F88F7E09508950E9473
:101B6000311188F09F5798F0B92F9927B751B0F0ED
:101B7000E1F0660F771F881F991F1AF0BA95C9F711
:101B800014C0B13091F00E944B11B1E008950C9453
:101B90004B11672F782F8827B85F39F0B93FCCF306
:101BA000869577956795B395D9F73EF4909580958E
:101BB000709561957F4F8F4F9F4F08950E941E0E25
:101BC00090F09F3748F4911116F00C944C1160E09E
:101BD00070E080E89FEB089526F41B16611D711DCF
:101BE000811D0C94F50D0C94100E882371F477234D
:101BF00021F09850872B762F07C0662311F4992780
:101C00000DC09051862B70E060E02AF09A95660F27
:101C1000771F881FDAF7880F9695879597F90895AB
:101C20009F3F31F0915020F4879577956795B79550
:101C3000880F911D9695879597F908950E94311107
:101C4000A0F0BEE7B91788F4BB279F3860F41616DA
:101C5000B11D672F782F8827985FF7CF86957795E6
:101C60006795B11D93959639C8F30895CF93DF9387
:101C70008230910510F482E090E0E0911004F09140
:101C8000110420E030E0C0E0D0E0309711F1408155
:101C9000518148175907C0F04817590761F48281EC
:101CA0009381209719F09B838A832BC09093110412
:101CB0008093100426C02115310519F042175307EF
:101CC00018F49A01BE01DF01EF010280F381E02DDB
:101CD000DCCF2115310509F1281B390B24303105E2
:101CE00090F412968D919C9113976115710521F0D6
:101CF000FB019383828304C09093110480931004AA
:101D0000FD01329644C0FD01E20FF31F81939193D0
:101D1000225031092D933C933AC020910E0430910A
:101D20000F04232B41F420910601309107013093D9
:101D30000F0420930E042091040130910501211518
:101D4000310541F42DB73EB740910801509109018A
:101D5000241B350BE0910E04F0910F04E217F307FA
:101D6000A0F42E1B3F0B2817390778F0AC014E5F0B
:101D70005F4F2417350748F04E0F5F1F50930F0435
:101D800040930E048193919302C0E0E0F0E0CF0114
:101D9000DF91CF9108950F931F93CF93DF93009717
:101DA00009F48CC0FC013297138212820091100456
:101DB000109111040115110581F420813181820FE8
:101DC000931F20910E0430910F042817390779F5DD
:101DD000F0930F04E0930E0471C0D80140E050E08E
:101DE000AE17BF0750F412962D913C911397AD0199
:101DF0002115310509F1D901F3CF9D01DA013383B2
:101E0000228360817181860F971F8217930769F47F
:101E1000EC0128813981260F371F2E5F3F4F318318
:101E200020838A819B8193838283452B29F4F093BD
:101E30001104E093100442C01396FC93EE931297A2
:101E4000ED01499159919E01240F351FE217F307C7
:101E500071F480819181840F951F029611969C9355
:101E60008E938281938113969C938E931297E0E0D8
:101E7000F0E0D80112968D919C911397009719F07C
:101E8000F8018C01F6CF8D919C9198012E5F3F4F08
:101E9000820F931F20910E0430910F0428173907E9
:101EA00069F4309729F4109211041092100402C0C2
:101EB0001382128210930F0400930E04DF91CF91CE
:101EC0001F910F910895A0E0B0E0E9E6FFE00C94C7
:101ED0007511EC01009721F4CB010E94360EB8C0B9
:101EE000FC01E60FF71F9C0122503109E217F307AE
:101EF00008F4ACC0D9010D911C9111970617170772
:101F0000B0F00530110508F49FC0C801049786178A
:101F1000970708F499C002501109061B170B01938B
:101F200011936D937C93CF010E94CB0E8DC05B010A
:101F3000A01AB10A4C01800E911EA0911004B0911C
:101F4000110440E050E0E12CF12C109709F44AC054
:101F5000A815B905D1F56D907C901197630182E0C9
:101F6000C80ED11CCA14DB0480F1A3014A195B0915
:101F70006A0182E0C80ED11C1296BC90129713968B
:101F8000AC91B5E0CB16D10440F0B282A38351836B
:101F90004083D9016D937C930AC00E5F1F4FC3012C
:101FA000800F911FF90191838083EB2DFA2FE114AB
:101FB000F10431F0D7011396FC93EE93129744C0CD
:101FC000F0931104E09310043FC08D919C91119700
:101FD0004817590708F4AC017D0112960D90BC9189
:101FE000A02DB3CF80910E0490910F048815990510
:101FF000E1F446175707C8F4809104019091050158
:10200000009741F48DB79EB74091080150910901A6
:10201000841B950BE817F907C8F4F0930F04E093BD
:102020000E04F901718360830FC0CB010E94360E4C
:102030007C01009759F0A801BE010E943210CE0128
:102040000E94CB0EC70104C0CE0102C080E090E028
:10205000CDB7DEB7EEE00C94911181E090E0F894FA
:102060000C94D911FB01DC0102C001900D9241508A
:102070005040D8F70895FB01DC0101900D9200203B
:10208000E1F70895FC0188279927E89421912032EF
:10209000E9F3293010F02E30C8F32B3241F02D3205
:1020A00039F4689404C00E948C10820F911D219114
:1020B00020532A30C0F31EF4909581959F4F0895C8
:1020C0004CE054E00E9465100895FA01A191B0819E
:1020D000009719F41097E1F0CD01DC01CD010D90CE
:1020E000002011F4C00113C0FB012191222319F03B
:1020F0002015D9F7F3CFFB012191201519F41E9279
:10210000119606C02223C1F70D900020A1F7D0013F
:10211000FA01A193B08308957AE0979F902D879F4D
:10212000802D910D112408950E94A7100C94181170
:102130000E940A1138F00E94111120F0952311F02D
:102140000C9401110C94071111240C944C110E9451
:10215000291170F3959FC1F3950F50E0551F629FB1
:10216000F001729FBB27F00DB11D639FAA27F00DF0
:10217000B11DAA1F649F6627B00DA11D661F829F17
:102180002227B00DA11D621F739FB00DA11D621FFC
:10219000839FA00D611D221F749F3327A00D611D19
:1021A000231F849F600D211D822F762F6A2F1124FB
:1021B0009F5750409AF0F1F088234AF0EE0FFF1F2E
:1021C000BB1F661F771F881F91505040A9F79E3F85
:1021D000510580F00C9401110C944C115F3FE4F315
:1021E000983ED4F3869577956795B795F795E795DB
:1021F0009F5FC1F7FE2B880F911D9695879597F9E4
:10220000089597F99F6780E870E060E008959FEF78
:1022100080EC089500240A9416161706180609067D
:10222000089500240A94121613061406050608954C
:10223000092E0394000C11F4882352F0BB0F40F4D4
:10224000BF2B11F460FF04C06F5F7F4F8F4F9F4F14
:10225000089557FD9058440F551F59F05F3F71F096
:102260004795880F97FB991F61F09F3F79F08795FD
:102270000895121613061406551FF2CF4695F1DF86
:1022800008C0161617061806991FF1CF8695710516
:10229000610508940895E894BB2766277727CB014A
:1022A00097F90895052E97FB1EF400940E9469117A
:1022B00057FD07D00E94A81107FC03D04EF40C94E0
:1022C000691150954095309521953F4F4F4F5F4F85
:1022D000089590958095709561957F4F8F4F9F4F92
:1022E00008952F923F924F925F926F927F928F92BA
:1022F0009F92AF92BF92CF92DF92EF92FF920F9395
:102300001F93CF93DF93CDB7DEB7CA1BDB0B0FB69E
:10231000F894DEBF0FBECDBF09942A88398848885B
:102320005F846E847D848C849B84AA84B984C884F1
:10233000DF80EE80FD800C811B81AA81B981CE0FE8
:10234000D11D0FB6F894DEBF0FBECDBFED010895CD
:10235000A1E21A2EAA1BBB1BFD010DC0AA1FBB1FA9
:10236000EE1FFF1FA217B307E407F50720F0A21B1B
:10237000B30BE40BF50B661F771F881F991F1A9488
:1023800069F760957095809590959B01AC01BD01B2
:10239000CF010895A29FB001B39FC001A39F700D0C
:1023A000811D1124911DB29F700D811D1124911D5D
:1023B000089510E0C2E6D0E004C0FE010E94CA0CFD
:0C23C0002196C336D107C9F7F894FFCF6F
:1023CC005A005A00000012048000010000000000B6
:1023DC00000011018D00DA00B800CC00580100009B
:1023EC00000037020702FF01EB01DC01DB010000FA
:1023FC0000007F028D00D302EB0266027E02537452
:10240C006172746564000D0A003A0043757272655E
:08241C006E743A20006D4100CE
:107800000C94343C0C94513C0C94513C0C94513CE1
:107810000C94513C0C94513C0C94513C0C94513CB4
:107820000C94513C0C94513C0C94513C0C94513CA4
:107830000C94513C0C94513C0C94513C0C94513C94
:107840000C94513C0C94513C0C94513C0C94513C84
:107850000C94513C0C94513C0C94513C0C94513C74
:107860000C94513C0C94513C11241FBECFEFD8E036
:10787000DEBFCDBF11E0A0E0B1E0ECE9FFE702C060
:1078800005900D92A230B107D9F712E0A2E0B1E065
:1078900001C01D92AD30B107E1F70E942D3D0C945F
:1078A000CC3F0C94003C982F959595959595959582
:1078B000905D8F708A307CF0282F295A8091C0000B
:1078C00085FFFCCF9093C6008091C00085FFFCCF60
:1078D0002093C6000895282F205DF0CF982F809127
:1078E000C00085FFFCCF9093C6000895EF92FF92F1
:1078F0000F931F93EE24FF2487018091C00087FD22
:1079000017C00894E11CF11C011D111D81E4E8164B
:1079100082E4F8068FE0080780E0180770F3E09132
:107920000401F091050109958091C00087FFE9CF1E
:107930008091C6001F910F91FF90EF9008950E94D3
:10794000763C982F8091C00085FFFCCF9093C600B5
:1079500091362CF490330CF09053892F089597555D
:10796000892F08951F930E949F3C182F0E949F3CCF
:107970001295107F810F1F9108951F93182F882350
:1079800021F00E94763C1150E1F71F9108951F935A
:10799000182F0E94763C803249F0809103018F5F5E
:1079A000809303018530C1F01F9108958091C0003C
:1079B00085FFFCCF84E18093C6008091C00085FFE5
:1079C000FCCF1093C6008091C00085FFFCCF80E102
:1079D0008093C6001F910895E0910401F091050184
:1079E00009951F9108950E94763C803241F0809164
:1079F00003018F5F80930301853081F008958091AA
:107A0000C00085FFFCCF84E18093C6008091C00058
:107A100085FFFCCF80E18093C6000895E0910401CA
:107A2000F09105010995089540E951E08823A1F0FE
:107A30002D9A28EE33E0FA013197F1F721503040CA
:107A4000D1F72D9828EE33E0FA013197F1F7215064
:107A50003040D1F7815061F708953F924F925F9285
:107A60006F927F928F929F92AF92BF92CF92DF924E
:107A7000EF92FF920F931F93CF93DF93000080E16B
:107A80008093C4001092C50088E18093C10086E015
:107A90008093C2005098589A259A81E00E94143D24
:107AA00024E1F22E9EE1E92E85E9D82E0FE0C02ECA
:107AB00010E1B12EAA24A394B1E49B2EA6E58A2E50
:107AC000F2E57F2EE0E26E2E79E4572E63E5462E36
:107AD00050E5352E0E94763C8033B1F18133B9F107
:107AE000803409F46FC0813409F476C0823409F41B
:107AF00085C0853409F488C0803531F1823521F1A3
:107B0000813511F1853509F485C0863509F48DC0BC
:107B1000843609F496C0843709F403C1853709F423
:107B200072C1863709F466C0809103018F5F80932C
:107B30000301853079F6E0910401F0910501099582
:107B40000E94763C803351F60E94F33CC3CF0E94E2
:107B5000763C803249F78091C00085FFFCCFF092DF
:107B6000C6008091C00085FFFCCF9092C600809136
:107B7000C00085FFFCCF8092C6008091C00085FFC9
:107B8000FCCF7092C6008091C00085FFFCCF609250
:107B9000C6008091C00085FFFCCF5092C600809146
:107BA000C00085FFFCCF4092C6008091C00085FFD9
:107BB000FCCF3092C6008091C00085FFFCCFB09210
:107BC000C60088CF0E94763C863808F4BDCF0E945C
:107BD000763C0E94F33C7ECF0E94763C803809F4CC
:107BE0009CC0813809F40BC1823809F43CC1883942
:107BF00009F48FC080E00E94C73C6CCF84E10E94F2
:107C0000BD3C0E94F33C66CF85E00E94BD3C0E94D3
:107C1000F33C60CF0E94763C809306010E94763C44
:107C2000809307010E94F33C55CF0E94763C80333D
:107C300009F41DC183E00E94BD3C80E00E94C73C66
:107C400049CF0E94763C809309020E94763C809343
:107C5000080280910C028E7F80930C020E94763C79
:107C6000853409F415C18091080290910902892B8D
:107C700089F000E010E00E94763CF801E85FFE4FDA
:107C800080830F5F1F4F80910802909109020817AF
:107C9000190788F30E94763C803209F045CF809125
:107CA0000C0280FF01C16091060170910701660F0F
:107CB000771F7093070160930601A0910802B091AD
:107CC00009021097C9F0E8E0F1E09B01AD014E0F09
:107CD0005F1FF999FECF32BD21BD819180BDFA9A17
:107CE000F99A2F5F3F4FE417F50799F76A0F7B1F4B
:107CF00070930701609306018091C00085FFFCCF5F
:107D0000F092C6008091C00085FFFCCFB092C60003
:107D1000E1CE83E00E94C73CDDCE82E00E94C73CFA
:107D2000D9CE0E94763C809309020E94763C8093D3
:107D300008028091060190910701880F991F909386
:107D40000701809306010E94763C853409F4A6C0A1
:107D500080910C028E7F80930C020E94763C8032D0
:107D600009F0B8CE8091C00085FFFCCFF092C6002C
:107D7000609108027091090261157105B9F140E046
:107D800050E080910C02A82FA170B82FB27011C0E2
:107D9000BB2309F45CC0E0910601F0910701319624
:107DA000F0930701E09306014F5F5F4F46175707B7
:107DB000E8F4AA2369F3F999FECF209106013091E6
:107DC000070132BD21BDF89A90B58091C00085FFB2
:107DD000FCCF9093C6002F5F3F4F30930701209355
:107DE00006014F5F5F4F4617570718F38091C00099
:107DF00085FDE5CE8091C00085FFF8CFE0CE81E023
:107E00000E94C73C67CE0E94763C803209F08CCE3F
:107E10008091C00085FFFCCFF092C6008091C00029
:107E200085FFFCCFE092C6008091C00085FFFCCFAB
:107E3000D092C6008091C00085FFFCCFC092C600E2
:107E40008091C00085FFFCCFB092C60043CEE09188
:107E50000601F091070194918091C00085FFFCCF4D
:107E60009093C6009CCF80E10E94C73C33CE0E9415
:107E7000763C0E94763C182F0E94763C112309F430
:107E800083C0113009F484C08FE00E94C73C22CE29
:107E900080910C02816080930C02E5CE80910C02EF
:107EA000816080930C0259CF809107018823880F4D
:107EB000880B8A2180930B02809106019091070123
:107EC000880F991F90930701809306018091080203
:107ED00080FF09C080910802909109020196909359
:107EE000090280930802F894F999FECF1127E091D6
:107EF0000601F0910701C8E0D1E08091080290915D
:107F00000902103091F40091570001700130D9F34B
:107F100003E000935700E89500915700017001308D
:107F2000D9F301E100935700E89509901990009169
:107F3000570001700130D9F301E000935700E89534
:107F40001395103498F011270091570001700130FB
:107F5000D9F305E000935700E895009157000170B0
:107F60000130D9F301E100935700E895329602976A
:107F700009F0C7CF103011F00296E5CF112480919F
:107F8000C00085FFB9CEBCCE8EE10E94C73CA2CD19
:0C7F900085E90E94C73C9ECDF894FFCF0D
:027F9C00800063
:040000030000780081
:00000001FF
