:100000000C9463000C948B000C948B000C94680689
:100010000C9468060C9468060C948B000C948B006E
:100020000C948B000C948B000C948B000C940406A5
:100030000C948B000C948B000C948B000C948B0014
:100040000C9428040C948B000C94AC010C94860145
:100050000C948B000C948B000C948B000C948B00F4
:100060000C9479040C948B000000000024002700FD
:100070002A0000000008000201000003040700003D
:1000800000000000000000000000250028002B00F8
:1000900000000000230026002900040404040404D6
:1000A0000404020202020202030303030303010227
:1000B00004081020408001020408102001020408F6
:1000C00010205E0C540C11241FBECFEFD8E0DEBF11
:1000D000CDBF11E0A0E0B1E0EEEBF5E202C005908B
:1000E0000D92A036B107D9F723E0A0E6B1E001C038
:1000F0001D92AB3AB207E1F710E0C2E6D0E004C0CF
:100100002197FE010E94530DC136D107C9F70E9405
:1001100066080C94D2120C940000CF92DF92EF92FA
:10012000FF920F931F93CF93DF936C017A018B01A2
:10013000C0E0D0E0CE15DF0589F0D8016D918D01CA
:10014000D601ED91FC910190F081E02DC601099559
:10015000892B11F47E0102C02196ECCFC701DF91FB
:10016000CF911F910F91FF90EF90DF90CF90089566
:10017000FC01918D828D981761F0828DDF01A80FAF
:10018000B11D5D968C91928D9F5F9F73928F90E0D1
:1001900008958FEF9FEF0895FC01918D828D981740
:1001A00031F0828DE80FF11D858D90E008958FEF7D
:1001B0009FEF0895FC01918D228D892F90E0805C46
:1001C0009F4F821B91098F73992708958AED92E0C2
:1001D0000E94DA0021E0892B09F420E0822F0895A3
:1001E000FC01848DDF01A80FB11DA35ABF4F2C91D4
:1001F000848D90E001968F739927848FA689B789A3
:100200002C93A089B1898C9180648C93938D848D7B
:10021000981306C00288F389E02D80818F7D80834A
:100220000895EF92FF920F931F93CF93DF93EC010A
:1002300081E0888F9B8D8C8D981305C0E889F989A2
:10024000808185FD24C0F62E0B8D10E00F5F1F4FBF
:100250000F731127E02E8C8DE8120CC00FB607FC2F
:10026000FACFE889F989808185FFF5CFCE010E9418
:10027000F000F1CF8B8DFE01E80FF11DE35AFF4F27
:10028000F0820B8FEA89FB898081806207C0EE894A
:10029000FF896083E889F98980818064808381E0B7
:1002A00090E0DF91CF911F910F91FF90EF90089513
:1002B000CF93DF93EC01888D8823C9F0EA89FB890D
:1002C000808185FD05C0A889B9898C9186FD0FC004
:1002D0000FB607FCF5CF808185FFF2CFA889B989D9
:1002E0008C9185FFEDCFCE010E94F000E7CFDF912A
:1002F000CF91089580E090E0892B29F00E94E600DC
:1003000081110C94000008950E94C0101F920F925A
:100310000FB60F9211242F933F934F935F936F93D8
:100320007F938F939F93AF93BF93EF93FF938AED48
:1003300092E00E94F000FF91EF91BF91AF919F91E9
:100340008F917F916F915F914F913F912F910F907E
:100350000FBE0F901F9018951F920F920FB60F921D
:1003600011242F938F939F93EF93FF93E091EA02D1
:10037000F091EB028081E091F002F091F10282FDB8
:1003800012C090818091F3028F5F8F732091F402ED
:10039000821751F0E091F302F0E0E652FD4F958FA5
:1003A0008093F30201C08081FF91EF919F918F9123
:1003B0002F910F900FBE0F901F9018953FB7F89494
:1003C0008091890290918A02A0918B02B0918C0257
:1003D00026B5A89B05C02F3F19F00196A11DB11DA0
:1003E0003FBFBA2FA92F982F8827820F911DA11DDB
:1003F000B11DBC01CD0142E0660F771F881F991F18
:100400004A95D1F7089585ED8093BC008091BC009A
:1004100084FDFCCF1092B302089540916302262F11
:1004200030E0240F311D21323105DCF42091B3027C
:100430002430C9F4FC0180E090E0861758F4309134
:1004400063022191DC01AF5BBD4FA30FB11D2C9363
:100450000196F3CF80916302680F6093630280E09E
:10046000089581E0089582E008950895E091B5022D
:100470008091B402E81730F4F0E0EA54FD4F808137
:1004800090E008958FEF9FEF08959091B5028091CD
:10049000B402981750F4E92FF0E0EA54FD4F2081A0
:1004A00030E09F5F9093B50202C02FEF3FEFC9018C
:1004B00008958091B40290E02091B502821B9109C9
:1004C0000895CF92DF92EF92FF920F931F93CF93F5
:1004D000DF937C01262F972F8A018091D9028823F0
:1004E00091F0C62FD72F6E01C40ED51ECC15DD0599
:1004F00071F06991D701ED91FC910190F081E02DAF
:10050000C7010995F3CF642F822F0E940D02C80105
:10051000DF91CF911F910F91FF90EF90DF90CF90DF
:100520000895CF93DF931F92CDB7DEB769832091F3
:10053000D9022223D1F02091D602203240F021E0CE
:1005400030E0FC013383228380E090E015C080918D
:10055000D702E82FF0E0EF5DFD4F998190838F5F28
:100560008093D7028093D60205C061E0CE01019648
:100570000E940D0281E090E00F90DF91CF910895ED
:1005800020916201309163012817390771F490912D
:10059000600180916101981741F0E0916001F0E005
:1005A000E454FE4F808190E008958FEF9FEF08950F
:1005B00008951F93CF93DF93DC015C962D913C91BE
:1005C0005D972115310539F481E090E013969C93F5
:1005D0008E9312973DC05196ED91FC915297509693
:1005E0009C915097892F80951FB75E964C915E978E
:1005F00041FB772770F941FD6095F894408177239E
:1006000011F0492B01C048234083E9012197F1F7FC
:1006100048E0508160FF02C0592B01C0582350832D
:10062000E9012197F1F76695415099F7772321F079
:1006300090818923808303C08081982B90831FBF82
:100640005C968D919C915D970197F1F721E030E0E8
:10065000C901DF91CF911F910895209162013091DE
:1006600063012817390771F48091610120916001BD
:1006700090E0805C9F4F821B910960E470E00E94D3
:10068000240D089580E090E008952091620130915A
:10069000630128173907B9F49091600180916101D5
:1006A000981789F0E0916001F0E0E454FE4F8081FA
:1006B0002091600130E02F5F3F4F2F73332720934D
:1006C000600190E008958FEF9FEF089590E0FC01A6
:1006D000EE58FF4F3491FC01E255FF4F2491FC018D
:1006E000E656FF4FE491EE2309F43BC0332339F182
:1006F000333091F038F43130A9F0323001F584B55F
:100700008F7D12C0373091F03830A1F03430B9F419
:10071000809180008F7D03C0809180008F778093CF
:1007200080000DC084B58F7784BD09C08091B00072
:100730008F7703C08091B0008F7D8093B000F0E090
:10074000EE0FFF1FEA57FF4FA591B4918FB7F894B2
:10075000EC91611103C020952E2301C02E2B2C9308
:100760008FBF0895CF93DF9390E0FC01E255FF4FD8
:100770002491FC01E656FF4F8491882361F190E0BB
:10078000880F991FFC01E859FF4FC591D491FC01D6
:10079000EA57FF4FA591B491611109C09FB7F89432
:1007A0008881209582238883EC912E230BC06230B0
:1007B00061F49FB7F8943881822F809583238883D2
:1007C000EC912E2B2C939FBF06C08FB7F894E88135
:1007D0002E2B28838FBFDF91CF9108958F929F9208
:1007E000AF92BF92CF92DF92EF92FF926B017C01AA
:1007F0000E94DE014B015C01C114D104E104F1044B
:10080000F1F00E94DE01DC01CB0188199909AA09E7
:10081000BB09883E9340A105B10570F321E0C21ADF
:10082000D108E108F10888EE880E83E0981EA11C2B
:10083000B11CC114D104E104F10419F7DDCFFF901C
:10084000EF90DF90CF90BF90AF909F908F900895E2
:100850001F920F920FB60F9211242F933F938F93F5
:100860009F93AF93BF938091640190916501A09194
:100870006601B09167013091880223E0230F2D3784
:1008800020F40196A11DB11D05C026E8230F029694
:10089000A11DB11D2093880280936401909365018E
:1008A000A0936601B09367018091890290918A02BA
:1008B000A0918B02B0918C020196A11DB11D809375
:1008C000890290938A02A0938B02B0938C02BF910D
:1008D000AF919F918F913F912F910F900FBE0F90ED
:1008E0001F901895DC01ED91FC910190F081E02DB5
:1008F00009941F920F920FB60F9211242F933F93DA
:100900004F935F936F937F938F939F93AF93BF9317
:10091000EF93FF938091B900887F803609F49CC0E3
:1009200068F5883209F45BC090F4803109F454C052
:1009300038F4882309F4F6C0883009F44DC0F6C0B5
:10094000883109F44CC0803209F45DC0EFC08034B6
:1009500009F468C048F4803309F455C0883309F0BD
:10096000E5C08093B102D8C0803509F44FC0883506
:1009700009F45DC0883409F0D9C0D6C0883909F4BB
:10098000C7C0A8F4883709F467C038F4883609F47A
:1009900063C0803709F460C0C9C0883809F4B8C0A2
:1009A000803909F45FC0803809F0C0C05BC0803B6B
:1009B00009F486C038F4803A09F466C0883A09F42C
:1009C0007FC0B4C0803C09F4A7C0883C09F4A4C02F
:1009D000883B09F48AC0AAC08091AE0210C09091F1
:1009E000B0028091AF02981770F5E091B00281E0FB
:1009F0008E0F8093B002F0E0E357FD4F808180932B
:100A0000BB0085EC86C08093B1028EC0E091B0023D
:100A100081E08E0F8093B0028091BB00F0E0E3573D
:100A2000FD4F80839091B0028091AF026EC0E09143
:100A3000B00281E08E0F8093B0028091BB00F0E0A5
:100A4000E357FD4F80838091B20281116DC081E038
:100A50008093AD0284EA61C083E08093B302109278
:100A60008702CFCF80918702803208F051C0E09199
:100A7000870281E08E0F809387028091BB00F0E0B7
:100A8000E959FD4F8083BDCF85EC8093BC00109267
:100A9000B30280918702803230F4E0918702F0E067
:100AA000E959FD4F10826091870270E0E091650284
:100AB000F091660287E692E009951092870236C0AF
:100AC00084E08093B3021092640210926302E0917A
:100AD0006102F0916202099580916302811105C063
:100AE00081E08093630210924102E091640281E010
:100AF0008E0F80936402F0E0EF5BFD4F8081809366
:100B0000BB009091640280916302981708F479CF3A
:100B100085E88093BC000AC085EC8093BC001092ED
:100B2000B30204C01092B1020E940302FF91EF9140
:100B3000BF91AF919F918F917F916F915F914F91F5
:100B40003F912F910F900FBE0F901F9018952091FD
:100B5000D6029091D802213208F04AC08091B302A7
:100B60008111FCCF32E03093B30231E03093B20216
:100B70003FEF3093B1021092B0022093AF02A1E296
:100B8000B2E04DE852E0FA013E2F341B321718F460
:100B90003D913193F9CF1092AE022091AE02990FA0
:100BA000922B9093AE029091AD02913061F410922D
:100BB000AD029091AE029093BB009091BC0093FD6A
:100BC000F8CF95EC01C095EE9093BC009091B302E4
:100BD0009230E1F39091B1029F3F79F08091B102A0
:100BE000803241F08091B102803331F084E005C061
:100BF00081E003C082E001C083E01092D70210922E
:100C0000D6021092D90208951F920F920FB60F923A
:100C100011242F933F938F939F93EF93FF93809192
:100C2000200287FF05C0109285001092840005C045
:100C30008091200287FD80912002809120028F5FA9
:100C4000809320028091200287FF20C080912002A3
:100C50008C30E4F420918400309185008091200252
:100C6000082E000C990BFC01EE0FFF1F8E0F9F1F2B
:100C7000FC01E450FE4F81819281820F931F90937B
:100C80008900809388008091200217C080918400A1
:100C900090918500049680349C4918F480E49CE986
:100CA00005C08091840090918500049690938900FE
:100CB000809388008FEF80932002FF91EF919F91A6
:100CC0008F913F912F910F900FBE0F901F9018950D
:100CD0001F920F920FB60F9211242F933F934F93B1
:100CE0005F936F937F938F939F93AF93BF93EF9394
:100CF000FF93E0916201F0916301309709F451C0D4
:100D0000968DA685B785858591FF04C09C91892322
:100D100029F447C09C91892309F043C0A389B48971
:100D20009C918589809589238C93868997890197E1
:100D3000F1F7608D718DA685B785558538E020E087
:100D4000CB010197F1F7822F90E095958795282F99
:100D50004C91452309F02068315091F7868D81FD33
:100D600020958091610190E001968F7399273091D1
:100D70006001381749F0A0916101B0E0A454BE4F62
:100D80002C938093610103C0868D8160868F828D54
:100D9000938D0197F1F7A389B4899C918589892B5B
:100DA0008C93FF91EF91BF91AF919F918F917F9124
:100DB0006F915F914F913F912F910F900FBE0F90C8
:100DC0001F901895E0916201F0916301E817F9070F
:100DD00069F4A389B4899C918589809589238C9332
:100DE000109263011092620181E0089580E00895FD
:100DF000009769F0FC0101900020E9F73197AF01FD
:100E0000481B590BBC0183E893E00C948D0080E0F3
:100E100090E008950F931F93CF93DF938B01C2EA65
:100E2000D3E0988121E02093D9029093D8021092C8
:100E3000D7021092D602A981BA81ED91FC91119747
:100E400024E0829FC0011124BC016A5F7F4F0190A2
:100E5000F081E02DCD01099560E070E089819A81F3
:100E60000E94720460E070E089819A810E9472049D
:100E7000B80189819A810E947204612F70E0898192
:100E80009A810E94720489819A81DF91CF911F918A
:100E90000F910C94A7051F93CF93DF93162FC2EAEF
:100EA000D3E0988121E02093D9029093D802109248
:100EB000D7021092D602A981BA81ED91FC911197C7
:100EC0000190F081E02D682FCD01099589819A81EB
:100ED000DC01ED91FC910190F081E02D612F0995ED
:100EE00089819A81DF91CF911F910C94A705CF93AF
:100EF000DF9326E636E646E65FE30E948D119B010E
:100F0000AC0160E27CEB8EEB95E40E94C60D20E024
:100F100030E040E85FE30E94590D20E030E040E01F
:100F20005FE30E945A0D0E94670E0E94380ED62F72
:100F30008091A20391E09093D9028093D8021092FD
:100F4000D7021092D6028091A3039091A403DC01F2
:100F5000ED91FC910190F081E02D60E00995809188
:100F6000A3039091A4030E94A7058091A2039091EE
:100F7000B3029111FCCF91E09093B3029093B2022F
:100F80002FEF2093B1021092B0021092AF02909313
:100F9000AE029091AE02880F892B8093AE028091B1
:100FA000AD02813061F41092AD028091AE02809367
:100FB000BB008091BC0083FDF8CF85EC01C085EEBD
:100FC0008093BC008091B3028130E1F38091B00244
:100FD000811103C08091B00201C081E0ADE8B2E0B0
:100FE00026EB32E0F9019E2F921B981718F49D9181
:100FF0009193F9CF1092B5028093B4028091A3032C
:101000009091A403DC01ED91FC910680F781E02D25
:101010000995C82F8F76682F606180E00E944B078A
:101020006D2F8EEF0E944B076C2F80E00E944B07C4
:1010300065E070E080E090E00E94EE036C2F606A53
:1010400080E0DF91CF910C944B078F929F92AF92EB
:10105000BF920F931F93CF93DF93CDB7DEB7A197C6
:101060000FB6F894DEBF0FBECDBF19A2423008F410
:101070004AE08E010F5D1F4F842E912CA12CB12CC4
:10108000A50194010E94A112E62FB901CA010150E5
:101090001109EA3014F4E05D01C0E95CD801EC9379
:1010A000232B242B252B61F7C8010E94F806A1965B
:1010B0000FB6F894DEBF0FBECDBFDF91CF911F9169
:1010C0000F91BF90AF909F908F900895CF93DF9333
:1010D00000D000D000D0CDB7DEB7789484B5826060
:1010E00084BD84B5816084BD85B5826085BD85B5CC
:1010F000816085BD80916E00816080936E0010924A
:1011000081008091810082608093810080918100C4
:101110008160809381008091800081608093800055
:101120008091B10084608093B1008091B0008160B3
:101130008093B00080917A00846080937A008091DF
:101140007A00826080937A0080917A008160809337
:101150007A0080917A00806880937A001092C100B2
:10116000E091EA02F091EB0282E08083E091E602F6
:10117000F091E70291E09083E091E802F091E902BA
:1011800080EA80831092F202E091EE02F091EF0289
:1011900086E08083E091EC02F091ED028081806135
:1011A0008083E091EC02F091ED0280818860808381
:1011B000E091EC02F091ED02808180688083E09103
:1011C000EC02F091ED0280818F7D80831092B50258
:1011D0001092B4021092D7021092D6021092B3026B
:1011E0009093B2021092AD0261E082E10E94660328
:1011F00061E083E10E9466038091B9008E7F809355
:10120000B9008091B9008D7F8093B90088E4809304
:10121000B80085E48093BC0060E880E00E944B0742
:101220006AE070E080E090E00E94EE0360E070E031
:101230008AE794E40E94770760E070E080E792E438
:101240000E9477076AE070E080E090E00E94EE0381
:1012500065E671E080E00E940A0760E971E081E0E4
:101260000E940A0760E971E082E00E940A0765E6D1
:1012700071E083E00E940A0765E671E084E00E9465
:101280000A0765E671E085E00E940A076AE070E0FF
:1012900080E090E00E94EE0310929E0310929D0366
:1012A00010929C0310929B0310929A031092990340
:1012B0008DE991E09093A00380939F0390918F0319
:1012C000963108F057C02DEB30E030939A0320930D
:1012D00099032BE931E030939C0320939B032CE28C
:1012E00031E030939E0320939D0320916800983055
:1012F00050F031E09E3008F430E081E001C0880F0A
:101300003A95EAF701C084E0822B80936800983018
:1013100038F09E3040F0963148F020E030E008C0D0
:101320002DE630E005C02BE630E002C02CE630E0D0
:101330003093970320939603983030F481E001C0F6
:10134000880F9A95EAF70EC0292F30E09E3018F4E6
:101350002850310902C02E50310981E001C0880FA8
:101360002A95EAF78093980380919F039091A003B8
:101370000197F1F780919D0390919E03892B21F1B4
:10138000809162019091630123E083389207E1F03C
:10139000009711F00E94E2068091A1038E7F809356
:1013A000A103109261011092600183E893E0909391
:1013B000630180936201E0919603F091970390811D
:1013C00080919803892B80838AE391E00E94F8063C
:1013D00082E491E00E94F8061092BC0161E08DE089
:1013E0000E94B20305EA11E054EB452E512C612C0A
:1013F000712C60E4362E8AED92E00E94DA00479765
:101400000CF444C245EAE42E41E0F42E2FB7F894E0
:101410008091640190916501A0916601B09167018E
:101420002FBF8093E2029093E302A093E402B09373
:10143000E502E091DA02F091DB020680F781E02D0F
:101440008AED92E0099597FD09C0D7018D937D0142
:10145000BCEBEB16B1E0FB06C9F624C02FB7F8943D
:101460008091640190916501A0916601B09167013E
:101470002FBF4091E2025091E3026091E40270912B
:10148000E502841B950BA60BB70B4091DE02509131
:10149000DF026091E0027091E10284179507A607D0
:1014A000B70738F2F80101900020E9F7BF01655A4B
:1014B000714080E090E00E94F60F9E838D8300973C
:1014C00031F0FC01108265EA71E00E94CE101092AA
:1014D000A40165E471E085EA91E00E94F3100097B1
:1014E00099F02091A401E22FF0E0EE0FFF1FEA58DF
:1014F000FE4F9183808391E0920F9093A40165E465
:1015000071E080E090E0E9CF8091760190917701E1
:101510000E94D5102FE931E0DC010E94380DA301B3
:1015200092010E944B12CA01B9016A567F4F8F4F38
:101530009F4F80E00E940A07809178019091790185
:101540000E94D51024EF31E0DC010E94380DA30188
:1015500092010E944B12CA01B9016A567F4F8F4F08
:101560009F4F81E00E940A0780917A0190917B0150
:101570000E94D51024EF31E0DC010E94380DA30158
:1015800092010E944B12CA01B9016A567F4F8F4FD8
:101590009F4F82E00E940A0780917C0190917D011B
:1015A0000E94D5102FE931E0DC010E94380DA30123
:1015B00092010E944B12CA01B9016A567F4F8F4FA8
:1015C0009F4F83E00E940A0780917E0190917F01E6
:1015D0000E94D5102FE931E0DC010E94380DA301F3
:1015E00092010E944B12CA01B9016A567F4F8F4F78
:1015F0009F4F84E00E940A0760E08DE00E9466032E
:1016000080918001909181010E94D5102FE931E0F5
:10161000DC010E94380DA30192010E944B12CA0105
:10162000B9016A567F4F8F4F9F4F85E00E940A078E
:1016300087E491E00E94F806109272011092730103
:10164000109274011092750185E0E82EF12C309211
:101650007C0080917A00806480937A0080917A0087
:1016600086FDFCCF609178008091790070E0782B46
:101670007093710160937001072E000C880B990B19
:101680000E942E1120E030E040E85AE30E948D11C4
:1016900020E030E44CE955E40E948D1160936C0128
:1016A00070936D0180936E0190936F0120E030E0A4
:1016B00040E151E40E94590D20E030E048EC52E452
:1016C0000E94C60D609368017093690180936A015E
:1016D00090936B01209172013091730140917401DC
:1016E000509175010E945A0D6093720170937301BD
:1016F0008093740190937501F1E0EF1AF10809F0FD
:10170000A6CF20E030E040EA50E40E94C60D6B0115
:101710007C014B015C019B01AC010E94C40E88233B
:1017200019F081E591E01FC0D701C601BF77898319
:101730009A83AB83BC832FEF3FEF4FE75FE7BC019A
:10174000CD010E94C40E811111C02FEF3FEF4FE772
:101750005FE769817A818B819C810E94271118162D
:101760002CF485E591E00E94F80684C02FEF3FEF4E
:101770004FE75FE4C701B6010E94BF0E18161CF4C4
:1017800089E591E0F0CF2FEF3FEF4FE75FECC70126
:10179000B6010E94271187FDF3CF20E030E0A901B8
:1017A000C701B6010E94271187FF11C0E091830392
:1017B000F09184030190F081E02D6DE283E893E0E5
:1017C000099546015701B7FAB094B7F8B0942AE0EA
:1017D00037ED43EA5BE3C501B4010E945A0D4B01AA
:1017E0005C010E94380E6B017C010E942C119B0150
:1017F000AC01C501B4010E94590D4B015C014AE0E6
:10180000C701B6010E942508E0918303F09184038B
:101810000190F081E02D6EE283E893E0099520E0ED
:1018200030E040E251E4C501B4010E948D116B012A
:101830007C010E94380E4B01A12CB12C4AE0C5015D
:10184000B4010E942508C501B4010E942C119B011E
:10185000AC01C701B6010E94590D20E030E040E222
:1018600051E40E948D110E94380E80E090E04AE021
:101870000E9425088DE591E00E94F80682E491E03F
:101880000E94F8068D819E810E945E0FA5EAB1E05C
:10189000E6E7F1E01D921192119291E0E43AF90726
:1018A000C9F70E947A01A7CD8EE291E0909384035C
:1018B0008093830383E893E00C94E2061092DD02A8
:1018C0001092DC0288EE93E0A0E0B0E08093DE02AC
:1018D0009093DF02A093E002B093E1022EE031E0AA
:1018E0003093DB022093DA0225EC30E03093E702FC
:1018F0002093E60224EC30E03093E9022093E802E2
:1019000020EC30E03093EB022093EA0221EC30E04F
:101910003093ED022093EC0222EC30E03093EF02A2
:101920002093EE0226EC30E03093F1022093F00297
:101930001092F3021092F4021092F5021092F60245
:1019400010927A031092790380937B0390937C0327
:10195000A0937D03B0937E032EE131E030937803B2
:101960002093770321E42093A20327E733E0309309
:10197000A4032093A30310928603109285038093FF
:10198000870390938803A0938903B0938A038EE220
:1019900091E0909384038093830310929A031092B2
:1019A000990310929C0310929B0310929E03109235
:1019B0009D031092A00310929F036091A1036E7F7C
:1019C0006D7F6093A1036695617081E0682783E075
:1019D0000E94660361E083E00E94B203E1EBF0E065
:1019E000E491E0939303EDE9F0E0E491F0E0EE0F91
:1019F000FF1FEA57FF4F8591949190939503809331
:101A0000940360E085E00E94B2038091A10381FD10
:101A100004C061E085E00E94660385E080938F0347
:101A2000E3EBF0E0E491E0939003EFE9F0E0E49180
:101A3000F0E0EE0FFF1FE057FF4F859194919093D8
:101A4000920380939103089597FB072E16F4009458
:101A500007D077FD09D00E943F0D07FC05D03EF46A
:101A6000909581959F4F0895709561957F4F08954A
:101A70000E94C312B7FF0895821B930B0895AA1BFF
:101A8000BB1B51E107C0AA1FBB1FA617B70710F069
:101A9000A61BB70B881F991F5A95A9F7809590959B
:101AA000BC01CD010895EE0FFF1F0590F491E02DCC
:101AB00009945058BB27AA270E94710D0C9411124B
:101AC0000E94031238F00E940A1220F039F49F3F5E
:101AD00019F426F40C9400120EF4E095E7FB0C9434
:101AE000FA11E92F0E94221258F3BA1762077307FE
:101AF0008407950720F079F4A6F50C9444120EF4AF
:101B0000E0950B2EBA2FA02D0B01B90190010C010D
:101B1000CA01A0011124FF27591B99F0593F50F425
:101B2000503E68F11A16F040A22F232F342F44277D
:101B3000585FF3CF469537952795A795F040539575
:101B4000C9F77EF41F16BA0B620B730B840BBAF045
:101B50009150A1F0FF0FBB1F661F771F881FC2F7B0
:101B60000EC0BA0F621F731F841F48F487957795C4
:101B70006795B795F7959E3F08F0B0CF9395880F7E
:101B800008F09927EE0F9795879508950E94DA0D32
:101B90000C9411120E940A1258F00E94031240F095
:101BA00029F45F3F29F00C94FA1151110C9445125D
:101BB0000C9400120E94221268F39923B1F355236A
:101BC00091F3951B550BBB27AA2762177307840750
:101BD00038F09F5F5F4F220F331F441FAA1FA9F3E6
:101BE00035D00E2E3AF0E0E832D091505040E695D4
:101BF000001CCAF72BD0FE2F29D0660F771F881F35
:101C0000BB1F261737074807AB07B0E809F0BB0B27
:101C1000802DBF01FF2793585F4F3AF09E3F51053B
:101C200078F00C94FA110C9445125F3FE4F3983E5F
:101C3000D4F3869577956795B795F7959F5FC9F724
:101C4000880F911D9695879597F90895E1E0660FA5
:101C5000771F881FBB1F621773078407BA0720F01E
:101C6000621B730B840BBA0BEE1F88F7E095089587
:101C70000E942A1288F09F5798F0B92F9927B751E0
:101C8000B0F0E1F0660F771F881F991F1AF0BA9520
:101C9000C9F714C0B13091F00E944412B1E0089528
:101CA0000C944412672F782F8827B85F39F0B93F1A
:101CB000CCF3869577956795B395D9F73EF49095D3
:101CC0008095709561957F4F8F4F9F4F08950E942B
:101CD000A70E90F09F3748F4911116F00C9445121E
:101CE00060E070E080E89FEB089526F41B16611D0C
:101CF000711D811D0C947E0E0C94990E882371F435
:101D0000772321F09850872B762F07C0662311F494
:101D100099270DC09051862B70E060E02AF09A95CB
:101D2000660F771F881FDAF7880F9695879597F9C2
:101D300008959F3F31F0915020F4879577956795EE
:101D4000B795880F911D9695879597F908950E94EC
:101D50002A12A0F0BEE7B91788F4BB279F3860F4B9
:101D60001616B11D672F782F8827985FF7CF8695B5
:101D700077956795B11D93959639C8F308950E949C
:101D8000691108F48FEF08950E946911880B990B6F
:101D90000895CF93DF938230910510F482E090E0B4
:101DA000E091A903F091AA0320E030E0C0E0D0E088
:101DB000309711F14081518148175907C0F04817F9
:101DC000590761F482819381209719F09B838A835C
:101DD0002BC09093AA038093A90326C02115310537
:101DE00019F04217530718F49A01BE01DF01EF0101
:101DF0000280F381E02DDCCF2115310509F1281B8C
:101E0000390B2430310590F412968D919C911397E3
:101E10006115710521F0FB019383828304C09093C7
:101E2000AA038093A903FD01329644C0FD01E20F8D
:101E3000F31F81939193225031092D933C933AC023
:101E40002091A7033091A803232B41F42091020194
:101E5000309103013093A8032093A7032091000140
:101E6000309101012115310541F42DB73EB7409164
:101E7000040150910501241B350BE091A703F0915B
:101E8000A803E217F307A0F42E1B3F0B281739070E
:101E900078F0AC014E5F5F4F2417350748F04E0FC6
:101EA0005F1F5093A8034093A7038193919302C0AF
:101EB000E0E0F0E0CF01DF91CF9108950F931F9301
:101EC000CF93DF93009709F48CC0FC013297138203
:101ED00012820091A9031091AA030115110581F442
:101EE00020813181820F931F2091A7033091A80395
:101EF0002817390779F5F093A803E093A70371C079
:101F0000D80140E050E0AE17BF0750F412962D9173
:101F10003C911397AD012115310509F1D901F3CF9A
:101F20009D01DA013383228360817181860F971FBF
:101F30008217930769F4EC0128813981260F371F36
:101F40002E5F3F4F318320838A819B8193838283DD
:101F5000452B29F4F093AA03E093A90342C01396FA
:101F6000FC93EE931297ED01499159919E01240F34
:101F7000351FE217F30771F480819181840F951F5B
:101F8000029611969C938E938281938113969C93D3
:101F90008E931297E0E0F0E0D80112968D919C911B
:101FA0001397009719F0F8018C01F6CF8D919C9151
:101FB00098012E5F3F4F820F931F2091A70330910E
:101FC000A8032817390769F4309729F41092AA0357
:101FD0001092A90302C0138212821093A8030093E7
:101FE000A703DF91CF911F910F910895A0E0B0E07A
:101FF000ECEFFFE00C946E12EC01009721F4CB01A2
:102000000E94C90EB8C0FC01E60FF71F9C012250C8
:102010003109E217F30708F4ACC0D9010D911C9106
:10202000119706171707B0F00530110508F49FC087
:10203000C80104978617970708F499C00250110940
:10204000061B170B019311936D937C93CF010E9494
:102050005E0F8DC05B01A01AB10A4C01800E911E6B
:10206000A091A903B091AA0340E050E0E12CF12C2B
:10207000109709F44AC0A815B905D1F56D907C9068
:102080001197630182E0C80ED11CCA14DB0480F1F1
:10209000A3014A195B096A0182E0C80ED11C12969D
:1020A000BC9012971396AC91B5E0CB16D10440F0DA
:1020B000B282A38351834083D9016D937C930AC07C
:1020C0000E5F1F4FC301800F911FF9019183808321
:1020D000EB2DFA2FE114F10431F0D7011396FC93A4
:1020E000EE93129744C0F093AA03E093A9033FC074
:1020F0008D919C9111974817590708F4AC017D0107
:1021000012960D90BC91A02DB3CF8091A703909112
:10211000A80388159905E1F446175707C8F480917C
:10212000000190910101009741F48DB79EB7409155
:10213000040150910501841B950BE817F907C8F4B9
:10214000F093A803E093A703F901718360830FC0A4
:10215000CB010E94C90E7C01009759F0A801BE0175
:102160000E94C510CE010E945E0FC70104C0CE01BF
:1021700002C080E090E0CDB7DEB7EEE00C948A12AA
:1021800081E090E0F8940C94D212FB01DC0102C0D3
:1021900001900D9241505040D8F70895FB01DC01A9
:1021A00001900D920020E1F70895FC0188279927FE
:1021B000E89421912032E9F3293010F02E30C8F351
:1021C0002B3241F02D3239F4689404C00E941F1163
:1021D000820F911D219120532A30C0F31EF4909557
:1021E00081959F4F089545EA53E00E94F8100895A5
:1021F000FA01A191B081009719F41097E1F0CD0197
:10220000DC01CD010D90002011F4C00113C0FB01D1
:102210002191222319F02015D9F7F3CFFB01219149
:10222000201519F41E92119606C02223C1F70D90B5
:102230000020A1F7D001FA01A193B08308957AE0BC
:10224000979F902D879F802D910D112408950E94B6
:10225000691108F481E00895E89409C097FB3EF401
:1022600090958095709561957F4F8F4F9F4F9923E3
:10227000A9F0F92F96E9BB279395F6958795779561
:102280006795B795F111F8CFFAF4BB0F11F460FF21
:102290001BC06F5F7F4F8F4F9F4F16C0882311F079
:1022A00096E911C0772321F09EE8872F762F05C08D
:1022B000662371F096E8862F70E060E02AF09A9528
:1022C000660F771F881FDAF7880F9695879597F91D
:1022D0000895990F0008550FAA0BE0E8FEEF1616B7
:1022E0001706E807F907C0F012161306E407F5070A
:1022F00098F0621B730B840B950B39F40A2661F07E
:10230000232B242B252B21F408950A2609F4A14020
:10231000A6958FEF811D811D08950E94A0110C9438
:1023200011120E94031238F00E940A1220F0952325
:1023300011F00C94FA110C94001211240C94451213
:102340000E94221270F3959FC1F3950F50E0551F24
:10235000629FF001729FBB27F00DB11D639FAA27FA
:10236000F00DB11DAA1F649F6627B00DA11D661F49
:10237000829F2227B00DA11D621F739FB00DA11D6A
:10238000621F839FA00D611D221F749F3327A00D24
:10239000611D231F849F600D211D822F762F6A2FC0
:1023A00011249F5750409AF0F1F088234AF0EE0F25
:1023B000FF1FBB1F661F771F881F91505040A9F752
:1023C0009E3F510580F00C94FA110C9445125F3F2A
:1023D000E4F3983ED4F3869577956795B795F7958E
:1023E000E7959F5FC1F7FE2B880F911D9695879506
:1023F00097F9089597F99F6780E870E060E0089585
:102400009FEF80EC089500240A941616170618060C
:102410000906089500240A941216130614060506E8
:102420000895092E0394000C11F4882352F0BB0F79
:1024300040F4BF2B11F460FF04C06F5F7F4F8F4FDC
:102440009F4F089557FD9058440F551F59F05F3F17
:1024500071F04795880F97FB991F61F09F3F79F0C6
:1024600087950895121613061406551FF2CF469548
:10247000F1DF08C0161617061806991FF1CF8695CA
:102480007105610508940895E894BB2766277727AE
:10249000CB0197F90895052E97FB1EF400940E9436
:1024A000621257FD07D00E94A11207FC03D04EF420
:1024B0000C94621250954095309521953F4F4F4FA7
:1024C0005F4F089590958095709561957F4F8F4FE0
:1024D0009F4F08952F923F924F925F926F927F92FB
:1024E0008F929F92AF92BF92CF92DF92EF92FF9224
:1024F0000F931F93CF93DF93CDB7DEB7CA1BDB0BD0
:102500000FB6F894DEBF0FBECDBF09942A88398874
:1025100048885F846E847D848C849B84AA84B9847B
:10252000C884DF80EE80FD800C811B81AA81B98187
:10253000CE0FD11D0FB6F894DEBF0FBECDBFED019B
:102540000895A1E21A2EAA1BBB1BFD010DC0AA1FF4
:10255000BB1FEE1FFF1FA217B307E407F50720F00C
:10256000A21BB30BE40BF50B661F771F881F991F87
:102570001A9469F760957095809590959B01AC01D0
:10258000BD01CF010895A29FB001B39FC001A39FD9
:10259000700D811D1124911DB29F700D811D11249C
:1025A000911D089510E0C2E6D0E004C0FE010E9433
:0E25B000530D2196C336D107C9F7F894FFCF1B
:1025BE000000AB03800001000000000000001101CC
:1025CE008D00DA00B800CC00580100000000910226
:1025DE006102590245023602350200000000D9029E
:1025EE008D002D034503C002D802537461727465C9
:1025FE0064000D0A003A0043757272656E743A20DB
:10260E00006E616E00696E66006F7666006D410049
:107E0000112484B714BE81FFF0D085E080938100F7
:107E100082E08093C00088E18093C10086E0809377
:107E2000C20080E18093C4008EE0C9D0259A86E02C
:107E300020E33CEF91E0309385002093840096BBD3
:107E4000B09BFECF1D9AA8958150A9F7CC24DD24C4
:107E500088248394B5E0AB2EA1E19A2EF3E0BF2EE7
:107E6000A2D0813461F49FD0082FAFD0023811F036
:107E7000013811F484E001C083E08DD089C08234E0
:107E800011F484E103C0853419F485E0A6D080C0E4
:107E9000853579F488D0E82EFF2485D0082F10E0AE
:107EA000102F00270E291F29000F111F8ED06801E7
:107EB0006FC0863521F484E090D080E0DECF843638
:107EC00009F040C070D06FD0082F6DD080E0C81688
:107ED00080E7D80618F4F601B7BEE895C0E0D1E017
:107EE00062D089930C17E1F7F0E0CF16F0E7DF06D8
:107EF00018F0F601B7BEE89568D007B600FCFDCFD4
:107F0000A601A0E0B1E02C9130E011968C91119780
:107F100090E0982F8827822B932B1296FA010C0160
:107F200087BEE89511244E5F5F4FF1E0A038BF0790
:107F300051F7F601A7BEE89507B600FCFDCF97BE46
:107F4000E89526C08437B1F42ED02DD0F82E2BD052
:107F50003CD0F601EF2C8F010F5F1F4F84911BD097
:107F6000EA94F801C1F70894C11CD11CFA94CF0C13
:107F7000D11C0EC0853739F428D08EE10CD085E9AC
:107F80000AD08FE07ACF813511F488E018D01DD067
:107F900080E101D065CF982F8091C00085FFFCCF94
:107FA0009093C60008958091C00087FFFCCF809118
:107FB000C00084FD01C0A8958091C6000895E0E648
:107FC000F0E098E1908380830895EDDF803219F02E
:107FD00088E0F5DFFFCF84E1DECF1F93182FE3DFCA
:107FE0001150E9F7F2DF1F91089580E0E8DFEE27F6
:047FF000FF270994CA
:027FFE00040479
:0400000300007E007B
:00000001FF
