:100000000C9463000C948B000C948B000C94680689
:100010000C9468060C9468060C948B000C948B006E
:100020000C948B000C948B000C948B000C940406A5
:100030000C948B000C948B000C948B000C948B0014
:100040000C9428040C948B000C94A2010C947C0159
:100050000C948B000C948B000C948B000C948B00F4
:100060000C9479040C948B000000000024002700FD
:100070002A0000000008000201000003040700003D
:1000800000000000000000000000250028002B00F8
:1000900000000000230026002900040404040404D6
:1000A0000404020202020202030303030303010227
:1000B00004081020408001020408102001020408F6
:1000C0001020B20CA80C11241FBECFEFD8E0DEBF69
:1000D000CDBF11E0A0E0B1E0E6E6F6E202C0059097
:1000E0000D92A436B107D9F723E0A4E6B1E001C030
:1000F0001D92AF3AB207E1F710E0C2E6D0E004C0CB
:100100002197FE010E94A70DC136D107C9F70E94B1
:10011000D6080C9426130C940000CF92DF92EF9235
:10012000FF920F931F93CF93DF936C017A018B01A2
:10013000C0E0D0E0CE15DF0589F0D8016D918D01CA
:10014000D601ED91FC910190F081E02DC601099559
:10015000892B11F47E0102C02196ECCFC701DF91FB
:10016000CF911F910F91FF90EF90DF90CF90089566
:10017000FC01918D828D981761F0828DDF01A80FAF
:10018000B11D5D968C91928D9F5F9F73928F90E0D1
:1001900008958FEF9FEF0895FC01918D828D981740
:1001A00031F0828DE80FF11D858D90E008958FEF7D
:1001B0009FEF0895FC01918D228D892F90E0805C46
:1001C0009F4F821B91098F73992708958EED92E0BE
:1001D0000E94DA0021E0892B09F420E0822F0895A3
:1001E000FC01848DDF01A80FB11DA35ABF4F2C91D4
:1001F000848D90E001968F739927848FA689B789A3
:100200002C93A089B1898C9180648C93938D848D7B
:10021000981306C00288F389E02D80818F7D80834A
:100220000895EF92FF920F931F93CF93DF93EC010A
:1002300081E0888F9B8D8C8D981305C0E889F989A2
:10024000808185FD24C0F62E0B8D10E00F5F1F4FBF
:100250000F731127E02E8C8DE8120CC00FB607FC2F
:10026000FACFE889F989808185FFF5CFCE010E9418
:10027000F000F1CF8B8DFE01E80FF11DE35AFF4F27
:10028000F0820B8FEA89FB898081806207C0EE894A
:10029000FF896083E889F98980818064808381E0B7
:1002A00090E0DF91CF911F910F91FF90EF90089513
:1002B000CF93DF93EC01888D8823C9F0EA89FB890D
:1002C000808185FD05C0A889B9898C9186FD0FC004
:1002D0000FB607FCF5CF808185FFF2CFA889B989D9
:1002E0008C9185FFEDCFCE010E94F000E7CFDF912A
:1002F000CF9108950E9414111F920F920FB60F9282
:1003000011242F933F934F935F936F937F938F931A
:100310009F93AF93BF93EF93FF938EED92E00E9474
:10032000F000FF91EF91BF91AF919F918F917F91DD
:100330006F915F914F913F912F910F900FBE0F9052
:100340001F9018951F920F920FB60F9211242F93A2
:100350008F939F93EF93FF93E091EE02F091EF0262
:100360008081E091F402F091F50282FD12C090814B
:100370008091F7028F5F8F732091F802821751F0FE
:10038000E091F702F0E0E252FD4F958F8093F70283
:1003900001C08081FF91EF919F918F912F910F90DC
:1003A0000FBE0F901F90189580E090E0892B29F0E8
:1003B0000E94E60081110C94000008953FB7F89464
:1003C00080918D0290918E02A0918F02B091900247
:1003D00026B5A89B05C02F3F19F00196A11DB11DA0
:1003E0003FBFBA2FA92F982F8827820F911DA11DDB
:1003F000B11DBC01CD0142E0660F771F881F991F18
:100400004A95D1F7089585ED8093BC008091BC009A
:1004100084FDFCCF1092B702089540916702262F09
:1004200030E0240F311D21323105DCF42091B70278
:100430002430C9F4FC0180E090E0861758F4309134
:1004400067022191DC01AB5BBD4FA30FB11D2C9363
:100450000196F3CF80916702680F6093670280E096
:10046000089581E0089582E008950895E091B90229
:100470008091B802E81730F4F0E0E654FD4F808137
:1004800090E008958FEF9FEF08959091B9028091C9
:10049000B802981750F4E92FF0E0E654FD4F2081A0
:1004A00030E09F5F9093B90202C02FEF3FEFC90188
:1004B00008958091B80290E02091B902821B9109C1
:1004C0000895CF92DF92EF92FF920F931F93CF93F5
:1004D000DF937C01262F972F8A018091DD028823EC
:1004E00091F0C62FD72F6E01C40ED51ECC15DD0599
:1004F00071F06991D701ED91FC910190F081E02DAF
:10050000C7010995F3CF642F822F0E940D02C80105
:10051000DF91CF911F910F91FF90EF90DF90CF90DF
:100520000895CF93DF931F92CDB7DEB769832091F3
:10053000DD022223D1F02091DA02203240F021E0C6
:1005400030E0FC013383228380E090E015C080918D
:10055000DB02E82FF0E0EB5DFD4F998190838F5F28
:100560008093DB028093DA0205C061E0CE01019640
:100570000E940D0281E090E00F90DF91CF910895ED
:1005800020916601309167012817390771F4909125
:10059000640180916501981741F0E0916401F0E0F9
:1005A000E054FE4F808190E008958FEF9FEF089513
:1005B00008951F93CF93DF93DC015C962D913C91BE
:1005C0005D972115310539F481E090E013969C93F5
:1005D0008E9312973DC05196ED91FC915297509693
:1005E0009C915097892F80951FB75E964C915E978E
:1005F00041FB772770F941FD6095F894408177239E
:1006000011F0492B01C048234083E9012197F1F7FC
:1006100048E0508160FF02C0592B01C0582350832D
:10062000E9012197F1F76695415099F7772321F079
:1006300090818923808303C08081982B90831FBF82
:100640005C968D919C915D970197F1F721E030E0E8
:10065000C901DF91CF911F910895209166013091DA
:1006600067012817390771F48091650120916401B1
:1006700090E0805C9F4F821B910960E470E00E94D3
:10068000780D089580E090E0089520916601309102
:10069000670128173907B9F49091640180916501C9
:1006A000981789F0E0916401F0E0E054FE4F8081FA
:1006B0002091640130E02F5F3F4F2F733327209349
:1006C000640190E008958FEF9FEF089590E0FC01A2
:1006D000EE58FF4F3491FC01E255FF4F2491FC018D
:1006E000E656FF4FE491EE2309F43BC0332339F182
:1006F000333091F038F43130A9F0323001F584B55F
:100700008F7D12C0373091F03830A1F03430B9F419
:10071000809180008F7D03C0809180008F778093CF
:1007200080000DC084B58F7784BD09C08091B00072
:100730008F7703C08091B0008F7D8093B000F0E090
:10074000EE0FFF1FEA57FF4FA591B4918FB7F894B2
:10075000EC91611103C020952E2301C02E2B2C9308
:100760008FBF0895CF93DF9390E0FC01E255FF4FD8
:100770002491FC01E656FF4F8491882361F190E0BB
:10078000880F991FFC01E859FF4FC591D491FC01D6
:10079000EA57FF4FA591B491611109C09FB7F89432
:1007A0008881209582238883EC912E230BC06230B0
:1007B00061F49FB7F8943881822F809583238883D2
:1007C000EC912E2B2C939FBF06C08FB7F894E88135
:1007D0002E2B28838FBFDF91CF9108958F929F9208
:1007E000AF92BF92CF92DF92EF92FF926B017C01AA
:1007F0000E94DE014B015C01C114D104E104F1044B
:10080000F1F00E94DE01DC01CB0188199909AA09E7
:10081000BB09883E9340A105B10570F321E0C21ADF
:10082000D108E108F10888EE880E83E0981EA11C2B
:10083000B11CC114D104E104F10419F7DDCFFF901C
:10084000EF90DF90CF90BF90AF909F908F900895E2
:100850001F920F920FB60F9211242F933F938F93F5
:100860009F93AF93BF938091680190916901A0918C
:100870006A01B0916B0130918C0223E0230F2D3778
:1008800020F40196A11DB11D05C026E8230F029694
:10089000A11DB11D20938C02809368019093690182
:1008A000A0936A01B0936B0180918D0290918E02AA
:1008B000A0918F02B09190020196A11DB11D80936D
:1008C0008D0290938E02A0938F02B0939002BF91FD
:1008D000AF919F918F913F912F910F900FBE0F90ED
:1008E0001F901895DC01ED91FC910190F081E02DB5
:1008F00009941F920F920FB60F9211242F933F93DA
:100900004F935F936F937F938F939F93AF93BF9317
:10091000EF93FF938091B900887F803609F49CC0E3
:1009200068F5883209F45BC090F4803109F454C052
:1009300038F4882309F4F6C0883009F44DC0F6C0B5
:10094000883109F44CC0803209F45DC0EFC08034B6
:1009500009F468C048F4803309F455C0883309F0BD
:10096000E5C08093B502D8C0803509F44FC0883502
:1009700009F45DC0883409F0D9C0D6C0883909F4BB
:10098000C7C0A8F4883709F467C038F4883609F47A
:1009900063C0803709F460C0C9C0883809F4B8C0A2
:1009A000803909F45FC0803809F0C0C05BC0803B6B
:1009B00009F486C038F4803A09F466C0883A09F42C
:1009C0007FC0B4C0803C09F4A7C0883C09F4A4C02F
:1009D000883B09F48AC0AAC08091B20210C09091ED
:1009E000B4028091B302981770F5E091B40281E0EF
:1009F0008E0F8093B402F0E0EF56FD4F808180931C
:100A0000BB0085EC86C08093B5028EC0E091B40235
:100A100081E08E0F8093B4028091BB00F0E0EF562E
:100A2000FD4F80839091B4028091B3026EC0E0913B
:100A3000B40281E08E0F8093B4028091BB00F0E09D
:100A4000EF56FD4F80838091B60281116DC081E029
:100A50008093B10284EA61C083E08093B702109270
:100A60008B02CFCF80918B02803208F051C0E09191
:100A70008B0281E08E0F80938B028091BB00F0E0AF
:100A8000E559FD4F8083BDCF85EC8093BC0010926B
:100A9000B70280918B02803230F4E0918B02F0E05B
:100AA000E559FD4F108260918B0270E0E091690280
:100AB000F0916A028BE692E0099510928B0236C0A3
:100AC00084E08093B7021092680210926702E0916E
:100AD0006502F0916602099580916702811105C057
:100AE00081E08093670210924502E091680281E004
:100AF0008E0F80936802F0E0EB5BFD4F8081809366
:100B0000BB009091680280916702981708F479CF32
:100B100085E88093BC000AC085EC8093BC001092ED
:100B2000B70204C01092B5020E940302FF91EF9138
:100B3000BF91AF919F918F917F916F915F914F91F5
:100B40003F912F910F900FBE0F901F9018952091FD
:100B5000DA029091DC02213208F04AC08091B7029B
:100B60008111FCCF32E03093B70231E03093B6020E
:100B70003FEF3093B5021092B4022093B302A5E286
:100B8000B2E041E952E0FA013E2F341B321718F46B
:100B90003D913193F9CF1092B2022091B202990F98
:100BA000922B9093B2029091B102913061F4109225
:100BB000B1029091B2029093BB009091BC0093FD62
:100BC000F8CF95EC01C095EE9093BC009091B702E0
:100BD0009230E1F39091B5029F3F79F08091B50298
:100BE000803241F08091B502803331F084E005C05D
:100BF00081E003C082E001C083E01092DB0210922A
:100C0000DA021092DD0208951F920F920FB60F9232
:100C100011242F933F938F939F93EF93FF93809192
:100C2000240287FF05C0109285001092840005C041
:100C30008091240287FD80912402809124028F5F9D
:100C4000809324028091240287FF20C08091240297
:100C50008C30E4F42091840030918500809124024E
:100C6000082E000C990BFC01EE0FFF1F8E0F9F1F2B
:100C7000FC01E050FE4F81819281820F931F90937F
:100C80008900809388008091240217C0809184009D
:100C900090918500049680349C4918F480E49CE986
:100CA00005C08091840090918500049690938900FE
:100CB000809388008FEF80932402FF91EF919F91A2
:100CC0008F913F912F910F900FBE0F901F9018950D
:100CD0001F920F920FB60F9211242F933F934F93B1
:100CE0005F936F937F938F939F93AF93BF93EF9394
:100CF000FF93E0916601F0916701309709F451C0CC
:100D0000968DA685B785858591FF04C09C91892322
:100D100029F447C09C91892309F043C0A389B48971
:100D20009C918589809589238C93868997890197E1
:100D3000F1F7608D718DA685B785558538E020E087
:100D4000CB010197F1F7822F90E095958795282F99
:100D50004C91452309F02068315091F7868D81FD33
:100D600020958091650190E001968F7399273091CD
:100D70006401381749F0A0916501B0E0A054BE4F5E
:100D80002C938093650103C0868D8160868F828D50
:100D9000938D0197F1F7A389B4899C918589892B5B
:100DA0008C93FF91EF91BF91AF919F918F917F9124
:100DB0006F915F914F913F912F910F900FBE0F90C8
:100DC0001F901895E0916601F0916701E817F90707
:100DD00069F4A389B4899C918589809589238C9332
:100DE000109267011092660181E0089580E00895F5
:100DF0001F93CF93DF931092BC011092BD0110920C
:100E0000BE011092BF01C5E0D0E010E410937C0059
:100E100080917A00806480937A0080917A0086FDC8
:100E2000FCCF609178008091790070E0782B70930E
:100E3000BB016093BA01072E000C880B990B0E942E
:100E4000821120E030E040E85AE30E94E11120E006
:100E500030E44CE955E40E94E1116093B6017093CF
:100E6000B7018093B8019093B90120E030E040E1F0
:100E700051E40E94AD0D20E030E048EC52E40E94C5
:100E80001A0E6093B2017093B3018093B4019093F2
:100E9000B5012091BC013091BD014091BE0150913E
:100EA000BF010E94AE0D6093BC017093BD018093A1
:100EB000BE019093BF01219709F0A8CF20E030E058
:100EC00040EA50E40E941A0EDF91CF911F910895DD
:100ED000009769F0FC0101900020E9F73197AF011C
:100EE000481B590BBC0187E893E00C948D0080E00F
:100EF00090E008950F931F93CF93DF938B01C6EA81
:100F0000D3E0988121E02093DD029093DC021092DF
:100F1000DB021092DA02A981BA81ED91FC9111975E
:100F200024E0829FC0011124BC016A5F7F4F0190C1
:100F3000F081E02DCD01099560E070E089819A8112
:100F40000E94720460E070E089819A810E947204BC
:100F5000B80189819A810E947204612F70E08981B1
:100F60009A810E94720489819A81DF91CF911F91A9
:100F70000F910C94A7051F93CF93DF93162FC6EA0A
:100F8000D3E0988121E02093DD029093DC0210925F
:100F9000DB021092DA02A981BA81ED91FC911197DE
:100FA0000190F081E02D682FCD01099589819A810A
:100FB000DC01ED91FC910190F081E02D612F09950C
:100FC00089819A81DF91CF911F910C94A705CF93CE
:100FD000DF9326E636E646E65FE30E94E1119B01D9
:100FE000AC0160E27CEB8EEB95E40E941A0E20E0EF
:100FF00030E040E85FE30E94AD0D20E030E040E0EB
:101000005FE30E94AE0D0E94BB0E0E948C0ED62F95
:101010008091A60391E09093DD028093DC02109210
:10102000DB021092DA028091A7039091A803DC0101
:10103000ED91FC910190F081E02D60E009958091A7
:10104000A7039091A8030E94A7058091A603909101
:10105000B7029111FCCF91E09093B7029093B60242
:101060002FEF2093B5021092B4021092B302909326
:10107000B2029091B202880F892B8093B2028091C4
:10108000B102813061F41092B1028091B20280937A
:10109000BB008091BC0083FDF8CF85EC01C085EEDC
:1010A0008093BC008091B7028130E1F38091B4025B
:1010B000811103C08091B40201C081E0A1E9B2E0D6
:1010C0002AEB32E0F9019E2F921B981718F49D919C
:1010D0009193F9CF1092B9028093B8028091A7033F
:1010E0009091A803DC01ED91FC910680F781E02D41
:1010F0000995C82F8F76682F606180E00E94BB073A
:101100006D2F8EEF0E94BB076C2F80E00E94BB0703
:1011100065E070E080E090E00E94EE036C2F606A72
:1011200080E0DF91CF910C94BB078F929F92AF929A
:10113000BF920F931F93CF93DF93CDB7DEB7A197E5
:101140000FB6F894DEBF0FBECDBF19A2423008F42F
:101150004AE08E010F5D1F4F842E912CA12CB12CE3
:10116000A50194010E94F512E62FB901CA010150B0
:101170001109EA3014F4E05D01C0E95CD801EC9398
:10118000232B242B252B61F7C8010E946807A19609
:101190000FB6F894DEBF0FBECDBFDF91CF911F9188
:1011A0000F91BF90AF909F908F900895789484B5E1
:1011B000826084BD84B5816084BD85B5826085BD53
:1011C00085B5816085BD80916E00816080936E00E1
:1011D00010928100809181008260809381008091D3
:1011E0008100816080938100809180008160809384
:1011F00080008091B10084608093B1008091B00044
:1012000081608093B00080917A00846080937A003E
:1012100080917A00826080937A0080917A00816068
:1012200080937A0080917A00806880937A0010928F
:10123000C100E091EE02F091EF0282E08083E09144
:10124000EA02F091EB0291E09083E091EC02F091E0
:10125000ED0280EA80831092F602E091F202F091B2
:10126000F30286E08083E091F002F091F102808148
:1012700080618083E091F002F091F10280818860CA
:101280008083E091F002F091F10280818068808398
:10129000E091F002F091F10280818F7D80831092C5
:1012A000B9021092B8021092DB021092DA02109288
:1012B000B7029093B6021092B10261E082E10E94FF
:1012C000660361E083E10E9466038091B9008E7F2E
:1012D0008093B9008091B9008D7F8093B90088E434
:1012E0008093B80085E48093BC0060E880E00E94B1
:1012F000BB076AE070E080E090E00E94EE0360E0EF
:1013000070E08AE794E40E94E70760E070E080E71D
:1013100092E40E94E7076AE070E080E090E00E94BB
:10132000EE0365E671E080E00E947A0760E971E013
:1013300081E00E947A0760E971E082E00E947A070A
:1013400065E671E083E00E947A0765E671E084E07B
:101350000E947A0765E671E085E00E947A076AE0FC
:1013600070E080E090E00E94EE031092A2031092E1
:10137000A1031092A00310929F0310929E0310925B
:101380009D038DE991E09093A4038093A303909132
:101390009303963108F057C02DEB30E030939E0355
:1013A00020939D032BE931E03093A00320939F030A
:1013B0002CE231E03093A2032093A1032091680036
:1013C000983050F031E09E3008F430E081E001C008
:1013D000880F3A95EAF701C084E0822B8093680079
:1013E000983038F09E3040F0963148F020E030E000
:1013F00008C02DE630E005C02BE630E002C02CE648
:1014000030E030939B0320939A03983030F481E0CE
:1014100001C0880F9A95EAF70EC0292F30E09E3060
:1014200018F42850310902C02E50310981E001C062
:10143000880F2A95EAF780939C038091A3039091EB
:10144000A4030197F1F78091A1039091A203892B46
:1014500021F1809166019091670123E0873892071E
:10146000E1F0009711F00E94E2068091A5038E7FC3
:101470008093A503109265011092640187E893E0C0
:101480009093670180936601E0919A03F0919B032A
:10149000908180919C03892B80838EE391E00E9450
:1014A000680786E491E00E9468071092B20161E04B
:1014B0008DE00E94B2034BE9242E41E0342E54EB20
:1014C000852E912CA12CB12C8EED92E00E94DA0099
:1014D00047970CF42FC2CBE9D1E02FB7F894809155
:1014E000680190916901A0916A01B0916B012FBFD1
:1014F0008093E6029093E702A093E802B093E9029A
:10150000E091DE02F091DF020680F781E02D8EEDA2
:1015100092E0099597FD06C0899381E0C23BD80708
:10152000E1F624C02FB7F894809168019091690189
:10153000A0916A01B0916B012FBF4091E6025091DA
:10154000E7026091E8027091E902841B950BA60BFB
:10155000B70B4091E2025091E3026091E402709176
:10156000E50284179507A607B70750F2F10101902D
:101570000020E9F7BF016B59714080E090E00E94C4
:101580004A10EC01009729F018826BE971E00E9483
:10159000221110929A0169E471E08BE991E00E94B6
:1015A0004711009791F020919A01E22FF0E0EE0FA1
:1015B000FF1FE459FE4F918380832F5F20939A0190
:1015C00069E471E080E090E0EACF80916C01909155
:1015D0006D010E9429112FE931E0DC010E948C0D80
:1015E000A50194010E949F12CA01B9016A567F4F5A
:1015F0008F4F9F4F80E00E947A0780916E019091FB
:101600006F010E94291124EF31E0DC010E948C0D52
:10161000A50194010E949F12CA01B9016A567F4F29
:101620008F4F9F4F81E00E947A07809170019091C7
:1016300071010E94291124EF31E0DC010E948C0D20
:10164000A50194010E949F12CA01B9016A567F4FF9
:101650008F4F9F4F82E00E947A0780917201909194
:1016600073010E9429112FE931E0DC010E948C0DE9
:10167000A50194010E949F12CA01B9016A567F4FC9
:101680008F4F9F4F83E00E947A0780917401909161
:1016900075010E9429112FE931E0DC010E948C0DB7
:1016A000A50194010E949F12CA01B9016A567F4F99
:1016B0008F4F9F4F84E00E947A0760E08DE00E9488
:1016C00066038BE491E00E9468070E94F8066B01B4
:1016D0007C019B01AC010E94180F882319F085E55D
:1016E00091E01AC026013701E89477F82FEF3FEF19
:1016F0004FE75FE7C301B2010E94180F81110FC0CD
:101700002FEF3FEF4FE75FE7C301B2010E947B116C
:1017100018162CF489E591E00E94680782C02FEF2B
:101720003FEF4FE75FE4C701B6010E94130F1816A1
:101730001CF48DE591E0F0CF2FEF3FEF4FE75FEC2A
:10174000C701B6010E947B1187FDF3CF20E030E096
:10175000A901C701B6010E947B1187FF0FC0E0916C
:101760008703F09188030190F081E02D6DE287E816
:1017700093E00995F7FAF094F7F8F0942AE037ED42
:1017800043EA5BE3C701B6010E94AE0D2B013C01A9
:101790000E948C0E6B017C010E9480119B01AC01A8
:1017A000C301B2010E94AD0D2B013C014AE0C7010B
:1017B000B6010E949508E0918703F091880301909B
:1017C000F081E02D6EE287E893E0099520E030E0BB
:1017D00040E251E4C301B2010E94E1116B017C01BE
:1017E0000E948C0E2B01612C712C4AE0C301B201C6
:1017F0000E949508C301B2010E9480119B01AC01B7
:10180000C701B6010E94AD0D20E030E040E251E496
:101810000E94E1110E948C0E80E090E04AE00E945C
:10182000950881E691E00E94680786E491E00E94B5
:10183000680780917601909177010E9429117C01BF
:10184000009709F46BC08A35910509F06CC080914E
:101850000201909103018A35910509F44CC0412C95
:10186000512C320106EF1FEFC301B201A501940113
:101870000E949F12CA01B9016A567F4F8F4F9F4F36
:1018800085E00E947A0710930101009300010E94F5
:10189000F8062AE939E949E15FE30E94130F1816B7
:1018A000CCF42FE931E0D8010E948C0D24EB30E01C
:1018B00040E050E00E949F12CA01B9016A567F4F72
:1018C0008F4F9F4F85E00E947A0761E08DE00E9474
:1018D000660329C00B5F1F4F8BE1480E88E0581E3E
:1018E000611C711C26EE421621E952066104710446
:1018F00009F0BACF18C0A0910001B09101012FE901
:1019000031E00E948C0DA50194010E949F12CA0132
:10191000B9016A567F4F8F4F9F4F02C066E970E052
:1019200085E00E947A07F0920301E0920201CE0165
:101930000E94B20FABE9B1E0ECE6F1E01D9211922A
:10194000119281E0EA39F807C9F70E94D401BCCDB1
:1019500082E391E0909388038093870387E893E084
:101960000C94E2061092E1021092E00288EE93E0FD
:10197000A0E0B0E08093E2029093E302A093E4023F
:10198000B093E50222E131E03093DF022093DE02E2
:1019900025EC30E03093EB022093EA0224EC30E0B7
:1019A0003093ED022093EC0220EC30E03093EF0214
:1019B0002093EE0221EC30E03093F1022093F0020C
:1019C00022EC30E03093F3022093F20226EC30E078
:1019D0003093F5022093F4021092F7021092F8026D
:1019E0001092F9021092FA0210927E0310927D0377
:1019F00080937F0390938003A0938103B09382032D
:101A000022E231E030937C0320937B0321E4209396
:101A1000A6032BE733E03093A8032093A70310928B
:101A20008A031092890380938B0390938C03A09375
:101A30008D03B0938E0382E391E0909388038093AB
:101A4000870310929E0310929D031092A0031092A0
:101A50009F031092A2031092A1031092A40310926C
:101A6000A3036091A5036E7F6D7F6093A5036695C8
:101A7000617081E0682783E00E94660361E083E093
:101A80000E94B203E1EBF0E0E491E0939703EDE90B
:101A9000F0E0E491F0E0EE0FFF1FEA57FF4F859171
:101AA0009491909399038093980360E085E00E945D
:101AB000B2038091A50381FD04C061E085E00E942E
:101AC000660385E080939303E3EBF0E0E491E09319
:101AD0009403EFE9F0E0E491F0E0EE0FFF1FE05730
:101AE000FF4F859194919093960380939503089569
:101AF00097FB072E16F4009407D077FD09D00E94BB
:101B0000930D07FC05D03EF4909581959F4F089565
:101B1000709561957F4F08950E941713B7FF089540
:101B2000821B930B0895AA1BBB1B51E107C0AA1F80
:101B3000BB1FA617B70710F0A61BB70B881F991F6E
:101B40005A95A9F780959095BC01CD010895EE0FA7
:101B5000FF1F0590F491E02D09945058BB27AA2748
:101B60000E94C50D0C9465120E94571238F00E9415
:101B70005E1220F039F49F3F19F426F40C945412AD
:101B80000EF4E095E7FB0C944E12E92F0E947612BA
:101B900058F3BA17620773078407950720F079F4A2
:101BA000A6F50C9498120EF4E0950B2EBA2FA02DEA
:101BB0000B01B90190010C01CA01A0011124FF27FA
:101BC000591B99F0593F50F4503E68F11A16F040F5
:101BD000A22F232F342F4427585FF3CF46953795F4
:101BE0002795A795F0405395C9F77EF41F16BA0BB9
:101BF000620B730B840BBAF09150A1F0FF0FBB1F67
:101C0000661F771F881FC2F70EC0BA0F621F731FAF
:101C1000841F48F4879577956795B795F7959E3F0C
:101C200008F0B0CF9395880F08F09927EE0F97959D
:101C3000879508950E942E0E0C9465120E945E12E4
:101C400058F00E94571240F029F45F3F29F00C949D
:101C50004E1251110C9499120C9454120E94761247
:101C600068F39923B1F3552391F3951B550BBB27CB
:101C7000AA2762177307840738F09F5F5F4F220F10
:101C8000331F441FAA1FA9F335D00E2E3AF0E0E807
:101C900032D091505040E695001CCAF72BD0FE2F51
:101CA00029D0660F771F881FBB1F261737074807E5
:101CB000AB07B0E809F0BB0B802DBF01FF2793589D
:101CC0005F4F3AF09E3F510578F00C944E120C9401
:101CD00099125F3FE4F3983ED4F386957795679524
:101CE000B795F7959F5FC9F7880F911D96958795D2
:101CF00097F90895E1E0660F771F881FBB1F6217F1
:101D000073078407BA0720F0621B730B840BBA0BAE
:101D1000EE1F88F7E09508950E947E1288F09F5785
:101D200098F0B92F9927B751B0F0E1F0660F771FFF
:101D3000881F991F1AF0BA95C9F714C0B13091F0F5
:101D40000E949812B1E008950C949812672F782F92
:101D50008827B85F39F0B93FCCF3869577956795BA
:101D6000B395D9F73EF490958095709561957F4F26
:101D70008F4F9F4F08950E94FB0E90F09F3748F4BD
:101D8000911116F00C94991260E070E080E89FEBDE
:101D9000089526F41B16611D711D811D0C94D20E31
:101DA0000C94ED0E882371F4772321F09850872B43
:101DB000762F07C0662311F499270DC09051862B0A
:101DC00070E060E02AF09A95660F771F881FDAF7B7
:101DD000880F9695879597F908959F3F31F0915018
:101DE00020F4879577956795B795880F911D9695FF
:101DF000879597F908950E947E12A0F0BEE7B91763
:101E000088F4BB279F3860F41616B11D672F782F12
:101E10008827985FF7CF869577956795B11D93953D
:101E20009639C8F308950E94BD1108F48FEF089504
:101E30000E94BD11880B990B0895CF93DF938230D8
:101E4000910510F482E090E0E091AD03F091AE03D3
:101E500020E030E0C0E0D0E0309711F140815181C6
:101E600048175907C0F04817590761F482819381D8
:101E7000209719F09B838A832BC09093AE038093A5
:101E8000AD0326C02115310519F04217530718F488
:101E90009A01BE01DF01EF010280F381E02DDCCF6A
:101EA0002115310509F1281B390B2430310590F437
:101EB00012968D919C9113976115710521F0FB018C
:101EC0009383828304C09093AE038093AD03FD019E
:101ED000329644C0FD01E20FF31F8193919322508B
:101EE00031092D933C933AC02091AB033091AC0360
:101EF000232B41F420910601309107013093AC036C
:101F00002093AB0320910401309105012115310587
:101F100041F42DB73EB74091080150910901241BAF
:101F2000350BE091AB03F091AC03E217F307A0F49B
:101F30002E1B3F0B2817390778F0AC014E5F5F4F1F
:101F40002417350748F04E0F5F1F5093AC034093A2
:101F5000AB038193919302C0E0E0F0E0CF01DF9109
:101F6000CF9108950F931F93CF93DF93009709F4B8
:101F70008CC0FC013297138212820091AD03109144
:101F8000AE030115110581F420813181820F931F69
:101F90002091AB033091AC032817390779F5F09302
:101FA000AC03E093AB0371C0D80140E050E0AE1742
:101FB000BF0750F412962D913C911397AD01211556
:101FC000310509F1D901F3CF9D01DA013383228371
:101FD00060817181860F971F8217930769F4EC0166
:101FE00028813981260F371F2E5F3F4F3183208391
:101FF0008A819B8193838283452B29F4F093AE03DE
:10200000E093AD0342C01396FC93EE931297ED015B
:10201000499159919E01240F351FE217F30771F47E
:1020200080819181840F951F029611969C938E93C7
:102030008281938113969C938E931297E0E0F0E057
:10204000D80112968D919C911397009719F0F80181
:102050008C01F6CF8D919C9198012E5F3F4F820F9E
:10206000931F2091AB033091AC032817390769F413
:10207000309729F41092AE031092AD0302C0138280
:1020800012821093AC030093AB03DF91CF911F91A9
:102090000F910895A0E0B0E0E0E5F0E10C94C212E9
:1020A000EC01009721F4CB010E941D0FB8C0FC0188
:1020B000E60FF71F9C0122503109E217F30708F4DD
:1020C000ACC0D9010D911C91119706171707B0F0FC
:1020D0000530110508F49FC0C801049786179707BB
:1020E00008F499C002501109061B170B01931193B4
:1020F0006D937C93CF010E94B20F8DC05B01A01A3B
:10210000B10A4C01800E911EA091AD03B091AE03B7
:1021100040E050E0E12CF12C109709F44AC0A815DA
:10212000B905D1F56D907C901197630182E0C80EDE
:10213000D11CCA14DB0480F1A3014A195B096A01AE
:1021400082E0C80ED11C1296BC9012971396AC91E7
:10215000B5E0CB16D10440F0B282A3835183408313
:10216000D9016D937C930AC00E5F1F4FC301800F8E
:10217000911FF90191838083EB2DFA2FE114F10473
:1021800031F0D7011396FC93EE93129744C0F0936D
:10219000AE03E093AD033FC08D919C91119748171A
:1021A000590708F4AC017D0112960D90BC91A02D49
:1021B000B3CF8091AB039091AC0388159905E1F4FE
:1021C00046175707C8F480910401909105010097C4
:1021D00041F48DB79EB74091080150910901841BCD
:1021E000950BE817F907C8F4F093AC03E093AB0341
:1021F000F901718360830FC0CB010E941D0F7C0128
:10220000009759F0A801BE010E941911CE010E9449
:10221000B20FC70104C0CE0102C080E090E0CDB78C
:10222000DEB7EEE00C94DE1281E090E0F8940C94BE
:102230002613FB01DC0102C001900D924150504079
:10224000D8F70895FB01DC0101900D920020E1F721
:102250000895FC0188279927E89421912032E9F319
:10226000293010F02E30C8F32B3241F02D3239F4E2
:10227000689404C00E947311820F911D2191205314
:102280002A30C0F31EF4909581959F4F089549EA36
:1022900053E00E944C110895FA01A191B08100977A
:1022A00019F41097E1F0CD01DC01CD010D90002073
:1022B00011F4C00113C0FB012191222319F0201554
:1022C000D9F7F3CFFB012191201519F41E92119635
:1022D00006C02223C1F70D900020A1F7D001FA011A
:1022E000A193B08308957AE0979F902D879F802DCA
:1022F000910D112408950E94BD1108F481E0089504
:10230000E89409C097FB3EF490958095709561958F
:102310007F4F8F4F9F4F9923A9F0F92F96E9BB2745
:102320009395F695879577956795B795F111F8CFC1
:10233000FAF4BB0F11F460FF1BC06F5F7F4F8F4F2C
:102340009F4F16C0882311F096E911C0772321F022
:102350009EE8872F762F05C0662371F096E8862FBA
:1023600070E060E02AF09A95660F771F881FDAF711
:10237000880F9695879597F90895990F0008550F3E
:10238000AA0BE0E8FEEF16161706E807F907C0F0FB
:1023900012161306E407F50798F0621B730B840B03
:1023A000950B39F40A2661F0232B242B252B21F4DD
:1023B00008950A2609F4A140A6958FEF811D811D7D
:1023C00008950E94F4110C9465120E94571238F07F
:1023D0000E945E1220F0952311F00C944E120C9482
:1023E000541211240C9499120E94761270F3959F46
:1023F000C1F3950F50E0551F629FF001729FBB27FC
:10240000F00DB11D639FAA27F00DB11DAA1F649F97
:102410006627B00DA11D661F829F2227B00DA11D4A
:10242000621F739FB00DA11D621F839FA00D611DD0
:10243000221F749F3327A00D611D231F849F600DF1
:10244000211D822F762F6A2F11249F5750409AF01A
:10245000F1F088234AF0EE0FFF1FBB1F661F771FA6
:10246000881F91505040A9F79E3F510580F00C9471
:102470004E120C9499125F3FE4F3983ED4F3869584
:1024800077956795B795F795E7959F5FC1F7FE2B11
:10249000880F911D9695879597F9089597F99F67ED
:1024A00080E870E060E008959FEF80EC08950024DC
:1024B0000A941616170618060906089500240A94A9
:1024C00012161306140605060895092E0394000C2F
:1024D00011F4882352F0BB0F40F4BF2B11F460FFBE
:1024E00004C06F5F7F4F8F4F9F4F089557FD9058E7
:1024F000440F551F59F05F3F71F04795880F97FBC8
:10250000991F61F09F3F79F0879508951216130681
:102510001406551FF2CF4695F1DF08C016161706B0
:102520001806991FF1CF86957105610508940895E5
:10253000E894BB2766277727CB0197F90895052EE6
:1025400097FB1EF400940E94B61257FD07D00E941C
:10255000F51207FC03D04EF40C94B612509540953A
:10256000309521953F4F4F4F5F4F0895909580953F
:10257000709561957F4F8F4F9F4F08952F923F9297
:102580004F925F926F927F928F929F92AF92BF9283
:10259000CF92DF92EF92FF920F931F93CF93DF932F
:1025A000CDB7DEB7CA1BDB0B0FB6F894DEBF0FBE8C
:1025B000CDBF09942A88398848885F846E847D84D9
:1025C0008C849B84AA84B984C884DF80EE80FD80DB
:1025D0000C811B81AA81B981CE0FD11D0FB6F89451
:1025E000DEBF0FBECDBFED010895A1E21A2EAA1BDA
:1025F000BB1BFD010DC0AA1FBB1FEE1FFF1FA217B3
:10260000B307E407F50720F0A21BB30BE40BF50BAF
:10261000661F771F881F991F1A9469F76095709538
:10262000809590959B01AC01BD01CF010895A29FBB
:10263000B001B39FC001A39F700D811D1124911D96
:10264000B29F700D811D1124911D089510E0C2E606
:10265000D0E004C0FE010E94A70D2196C336D10729
:06266000C9F7F894FFCF5A
:102666005A005A000000AF0380000100000000007D
:10267600000011018D00DA00B800CC0058010000FE
:10268600000091026102590245023602350200003D
:102696000000D9028D002D034503C002D8025374F1
:1026A6006172746564000D0A003A004375727265C2
:1026B6006E743A20006E616E00696E66006F766613
:0426C600006D410062
:107800000C94343C0C94513C0C94513C0C94513CE1
:107810000C94513C0C94513C0C94513C0C94513CB4
:107820000C94513C0C94513C0C94513C0C94513CA4
:107830000C94513C0C94513C0C94513C0C94513C94
:107840000C94513C0C94513C0C94513C0C94513C84
:107850000C94513C0C94513C0C94513C0C94513C74
:107860000C94513C0C94513C11241FBECFEFD8E036
:10787000DEBFCDBF11E0A0E0B1E0ECE9FFE702C060
:1078800005900D92A230B107D9F712E0A2E0B1E065
:1078900001C01D92AD30B107E1F70E942D3D0C945F
:1078A000CC3F0C94003C982F959595959595959582
:1078B000905D8F708A307CF0282F295A8091C0000B
:1078C00085FFFCCF9093C6008091C00085FFFCCF60
:1078D0002093C6000895282F205DF0CF982F809127
:1078E000C00085FFFCCF9093C6000895EF92FF92F1
:1078F0000F931F93EE24FF2487018091C00087FD22
:1079000017C00894E11CF11C011D111D81E4E8164B
:1079100082E4F8068FE0080780E0180770F3E09132
:107920000401F091050109958091C00087FFE9CF1E
:107930008091C6001F910F91FF90EF9008950E94D3
:10794000763C982F8091C00085FFFCCF9093C600B5
:1079500091362CF490330CF09053892F089597555D
:10796000892F08951F930E949F3C182F0E949F3CCF
:107970001295107F810F1F9108951F93182F882350
:1079800021F00E94763C1150E1F71F9108951F935A
:10799000182F0E94763C803249F0809103018F5F5E
:1079A000809303018530C1F01F9108958091C0003C
:1079B00085FFFCCF84E18093C6008091C00085FFE5
:1079C000FCCF1093C6008091C00085FFFCCF80E102
:1079D0008093C6001F910895E0910401F091050184
:1079E00009951F9108950E94763C803241F0809164
:1079F00003018F5F80930301853081F008958091AA
:107A0000C00085FFFCCF84E18093C6008091C00058
:107A100085FFFCCF80E18093C6000895E0910401CA
:107A2000F09105010995089540E951E08823A1F0FE
:107A30002D9A28EE33E0FA013197F1F721503040CA
:107A4000D1F72D9828EE33E0FA013197F1F7215064
:107A50003040D1F7815061F708953F924F925F9285
:107A60006F927F928F929F92AF92BF92CF92DF924E
:107A7000EF92FF920F931F93CF93DF93000080E16B
:107A80008093C4001092C50088E18093C10086E015
:107A90008093C2005098589A259A81E00E94143D24
:107AA00024E1F22E9EE1E92E85E9D82E0FE0C02ECA
:107AB00010E1B12EAA24A394B1E49B2EA6E58A2E50
:107AC000F2E57F2EE0E26E2E79E4572E63E5462E36
:107AD00050E5352E0E94763C8033B1F18133B9F107
:107AE000803409F46FC0813409F476C0823409F41B
:107AF00085C0853409F488C0803531F1823521F1A3
:107B0000813511F1853509F485C0863509F48DC0BC
:107B1000843609F496C0843709F403C1853709F423
:107B200072C1863709F466C0809103018F5F80932C
:107B30000301853079F6E0910401F0910501099582
:107B40000E94763C803351F60E94F33CC3CF0E94E2
:107B5000763C803249F78091C00085FFFCCFF092DF
:107B6000C6008091C00085FFFCCF9092C600809136
:107B7000C00085FFFCCF8092C6008091C00085FFC9
:107B8000FCCF7092C6008091C00085FFFCCF609250
:107B9000C6008091C00085FFFCCF5092C600809146
:107BA000C00085FFFCCF4092C6008091C00085FFD9
:107BB000FCCF3092C6008091C00085FFFCCFB09210
:107BC000C60088CF0E94763C863808F4BDCF0E945C
:107BD000763C0E94F33C7ECF0E94763C803809F4CC
:107BE0009CC0813809F40BC1823809F43CC1883942
:107BF00009F48FC080E00E94C73C6CCF84E10E94F2
:107C0000BD3C0E94F33C66CF85E00E94BD3C0E94D3
:107C1000F33C60CF0E94763C809306010E94763C44
:107C2000809307010E94F33C55CF0E94763C80333D
:107C300009F41DC183E00E94BD3C80E00E94C73C66
:107C400049CF0E94763C809309020E94763C809343
:107C5000080280910C028E7F80930C020E94763C79
:107C6000853409F415C18091080290910902892B8D
:107C700089F000E010E00E94763CF801E85FFE4FDA
:107C800080830F5F1F4F80910802909109020817AF
:107C9000190788F30E94763C803209F045CF809125
:107CA0000C0280FF01C16091060170910701660F0F
:107CB000771F7093070160930601A0910802B091AD
:107CC00009021097C9F0E8E0F1E09B01AD014E0F09
:107CD0005F1FF999FECF32BD21BD819180BDFA9A17
:107CE000F99A2F5F3F4FE417F50799F76A0F7B1F4B
:107CF00070930701609306018091C00085FFFCCF5F
:107D0000F092C6008091C00085FFFCCFB092C60003
:107D1000E1CE83E00E94C73CDDCE82E00E94C73CFA
:107D2000D9CE0E94763C809309020E94763C8093D3
:107D300008028091060190910701880F991F909386
:107D40000701809306010E94763C853409F4A6C0A1
:107D500080910C028E7F80930C020E94763C8032D0
:107D600009F0B8CE8091C00085FFFCCFF092C6002C
:107D7000609108027091090261157105B9F140E046
:107D800050E080910C02A82FA170B82FB27011C0E2
:107D9000BB2309F45CC0E0910601F0910701319624
:107DA000F0930701E09306014F5F5F4F46175707B7
:107DB000E8F4AA2369F3F999FECF209106013091E6
:107DC000070132BD21BDF89A90B58091C00085FFB2
:107DD000FCCF9093C6002F5F3F4F30930701209355
:107DE00006014F5F5F4F4617570718F38091C00099
:107DF00085FDE5CE8091C00085FFF8CFE0CE81E023
:107E00000E94C73C67CE0E94763C803209F08CCE3F
:107E10008091C00085FFFCCFF092C6008091C00029
:107E200085FFFCCFE092C6008091C00085FFFCCFAB
:107E3000D092C6008091C00085FFFCCFC092C600E2
:107E40008091C00085FFFCCFB092C60043CEE09188
:107E50000601F091070194918091C00085FFFCCF4D
:107E60009093C6009CCF80E10E94C73C33CE0E9415
:107E7000763C0E94763C182F0E94763C112309F430
:107E800083C0113009F484C08FE00E94C73C22CE29
:107E900080910C02816080930C02E5CE80910C02EF
:107EA000816080930C0259CF809107018823880F4D
:107EB000880B8A2180930B02809106019091070123
:107EC000880F991F90930701809306018091080203
:107ED00080FF09C080910802909109020196909359
:107EE000090280930802F894F999FECF1127E091D6
:107EF0000601F0910701C8E0D1E08091080290915D
:107F00000902103091F40091570001700130D9F34B
:107F100003E000935700E89500915700017001308D
:107F2000D9F301E100935700E89509901990009169
:107F3000570001700130D9F301E000935700E89534
:107F40001395103498F011270091570001700130FB
:107F5000D9F305E000935700E895009157000170B0
:107F60000130D9F301E100935700E895329602976A
:107F700009F0C7CF103011F00296E5CF112480919F
:107F8000C00085FFB9CEBCCE8EE10E94C73CA2CD19
:0C7F900085E90E94C73C9ECDF894FFCF0D
:027F9C00800063
:040000030000780081
:00000001FF
